:020000040800F2
:100000006011002071020008A74800087B38000832
:10001000A5480008D5080008195E00080000000087
:100020000000000000000000000000005155000822
:10003000C50A0008000000004D51000801570008E3
:100040008B0200088B0200088B0200088B0200085C
:100050008B0200088B0200088B0200088B0200084C
:100060008B0200088B0200088B0200088B0200083C
:100070008B0200088B0200088B0200088B0200082C
:100080008B0200088B0200088B0200088B0200081C
:10009000D90800088B0200088B0200088B020008B8
:1000A0008B0200088B0200088B0200088B020008FC
:1000B000A9570008B5570008C15700088B0200086F
:1000C0008B0200088B0200088B0200088B020008DC
:1000D0008B020008A15D0008C95D0008D55D00081D
:1000E0008B0200088B0200088B0200088B020008BC
:1000F0008B0200088B020008E55700088B020008FD
:100100008B0200088B020008CD5700088B02000804
:100110008B020008615B00088B020008D9570008B9
:100120008B0200088B0200088B0200088B0200087B
:100130008B0200088B0200088B0200088B0200086B
:100140008B0200088B0200088B0200088B0200085B
:100150008B0200088B0200088B0200088B0200084B
:100160008B0200088B0200088B0200088B0200083B
:100170008B0200088B0200088B02000800000000C0
:100180008B0200088B02000800F002F800F061F812
:100190000AA090E8000C82448344AAF10107DA45E2
:1001A00001D100F056F8AFF2090EBAE80F0013F0D3
:1001B000010F18BFFB1A43F00103184744A50000C4
:1001C00064A500000A444FF0000C10F8013B13F046
:1001D000070408BF10F8014B1D1108BF10F8015BA0
:1001E000641E05D010F8016B641E01F8016BF9D193
:1001F00013F0080F1EBF10F8014BAD1C0C1B09D1EA
:100200006D1E58BF01F801CBFAD505E014F8016B5B
:1002100001F8016B6D1EF9D59142D6D370470000ED
:100220000023002400250026103A28BF78C1FBD8FF
:10023000520728BF30C148BF0B607047642900F0E7
:10024000EF80002070471FB508F09DFE1FBD10B560
:1002500010BD00F0E3F91146FFF7F5FF07F020FBB2
:1002600000F001FA03B4FFF7F2FF03BC07F0FCF85B
:100270000948804709480047FEE7FEE7FEE7FEE73A
:10028000FEE7FEE7FEE7FEE7FEE7FEE70448054976
:10029000054A064B7047000099570008890100087D
:1002A000600B002060110020600D0020600D002018
:1002B00053EA020C00F069802DE9F04B4FF0000684
:1002C000002B1FBFB3FA83F503FA05F424FA05F6F1
:1002D0005E4012BF1643B2FA82F502FA05F4C5F188
:1002E00020051EBF22FA05FC44EA0C04203556EA1C
:1002F000044C4FEA144418BF641C4FF000084FF040
:100300000009904271EB030C39D3002919BFB1FAEF
:1003100081F701FA07F6B0FA80F700FA07F6C7F19D
:1003200020071EBF20FA07FC46EA0C062037B6FB62
:10033000F4FCA7EB0507103F07F01F0BCBF12006DD
:100340000CFA0BFB2CFA06F644BFB3460026202F0E
:10035000A4BF5E464FF0000B5BEA060C08BF4FF0EF
:10036000010B19EB0B09ABFB027C48EB0608C01B29
:1003700006FB02CC0BFB03CC71EB0C01C1E70B4677
:10038000024641464846BDE8F08B13B54FF00000E9
:100390004FF00001AFF30080BDE81C407047000043
:1003A0000FB4044910B503AA029800F001F910BC7B
:1003B0005DF814FB0C0000202DE9F0410E460446C8
:1003C000002020622046E168884730B3252805D008
:1003D000D4E901219047206A401CF2E7E1682046F9
:1003E00000278847050018D0A5F14100192802D838
:1003F00020354FF400673246294620462760FFF734
:100400001DFF40B1012804D0F61D26F0070608366E
:10041000D8E7361DD6E72846DAE7206ABDE8F0813E
:100420002DE9F0410646002410687529314615A5CE
:1004300010D0AFF30080002802DA404212A507E096
:1004400031688A0701D511A502E0490704D510A536
:10045000012401E0AFF3008000210A2306F1240704
:1004600007E0B0FBF3F203FB120030307854104683
:10047000491C0028F5D123462A463046BDE8F04104
:1004800000F03DB8000000002D0000002B0000002F
:10049000200000004FF0000200B513469446964637
:1004A000203922BFA0E80C50A0E80C50B1F1200187
:1004B000BFF4F7AF090728BFA0E80C5048BF0CC035
:1004C0005DF804EB890028BF40F8042B08BF704793
:1004D00048BF20F8022B11F0804F18BF00F8012B05
:1004E000704770477047704710B500F073F80068A8
:1004F00010BD10B5044600F06DF8046010BD2DE984
:10050000F0470D4699469246044600F124080168DA
:10051000880604D5E06921F01001216000E0012087
:10052000A84201DD471B00E00027A1697A1902EB10
:100530000900081AA0612078C00602D42046AFF353
:100540000080002608E0D4E901211AF8060090474F
:10055000206A401C761C20624E45F4DB2078C006E1
:100560000AD52046AFF3008006E0D4E9012130200F
:100570009047206A401C2062381EA7F10107F4DC76
:1005800007E0D4E9012118F805009047206A401CD3
:100590002062281EA5F10105F3DC2046AFF30080A0
:1005A0002078000602D50220BDE8F0870120FBE795
:1005B000074B70B50D467B4400F015F804462846FD
:1005C00000F024F810B14FF0FF3070BD204670BD30
:1005D000B772000000487047FC0A002001694A1CFD
:1005E00002610878704700B58FB0CDE90131002174
:1005F000059105497944CDE9031011466846FFF796
:10060000DBFE0FB000BD0000E5FFFFFF007B00F048
:100610008000704700487047FC0A00207546FFF7CD
:10062000F9FFAE4605006946534620F007008546AF
:1006300018B020B5FFF72AFEBDE820404FF00006B5
:100640004FF000074FF000084FF0000B21F00701BA
:10065000AC46ACE8C009ACE8C009ACE8C009ACE8FD
:10066000C0098D4670470446AFF300802046FFF76F
:10067000F9FD0000464910B54A6822F440324A604C
:100680004A6843681A434A6001684A6822F48072E3
:100690004A6001684A68036942EA03224A600168C5
:1006A0004A6822F040724A6001684A6883681A43C7
:1006B0004A6001688A6822F400628A6001688A6878
:1006C000C3681A438A60816A6FF07062D142016820
:1006D0008A6822F070628A6001688A680CD0836A36
:1006E0001A438A6001688A6822F040528A60016871
:1006F0008A68C36A1A4301E022F040528A600168A6
:100700008A6822F002028A6001688A68037E42EAEF
:1007100043028A6090F82010002901684A680FD0CF
:1007200042F400624A6001684A6822F460424A600A
:1007300001684A68174C436A04EB43331A4301E0EB
:1007400022F400624A600168CA6A22F47002CA6236
:100750000168CA6A838B104C04EB03531A43CA62C4
:1007600001688A6822F400728A6001688A6890F8D9
:10077000303042EA43228A6001688A6822F480624B
:100780008A6001688A68406942EA8020886010BDFA
:100790000023014000E0FFFF0000F0FF38B53548BE
:1007A0009FED351A9FED350AD0ED000A10EE810A53
:1007B000F3EE0B0A80EE201ABDEEC10A10EE104ACD
:1007C000642C00DD64242E48DFED2E0A90ED000A33
:1007D00020EE200ABDEEC00A10EE100A002800DA52
:1007E0004042294991ED000A20EE200ABDEEC00AE0
:1007F00010EE101A002900DA4942244B1A789AB1F7
:100800000022234D1A702B78012B0FD0214DB5F902
:10081000043032B3B5F90220B5F9001001B01EA0C2
:10082000BDE83040FFF7BCBD0122EAE71E4890ED6D
:10083000000A1E48BDEEC00A10EE103A90ED000A04
:100840001B48BDEEC00A10EE102A90ED000A19A058
:10085000BDEEC00A10EE101AFFF7A2FD00202870AE
:1008600038BDCAB2C1B20093234616A0FFF798FD67
:1008700038BD00000000002000007A4400401C4603
:10088000AC0A00200000C842C00A0020C0000020BE
:100890001D010020380100207B4225643A25643A7E
:1008A00025647D2400000000D8000020D400002032
:1008B000D00000207B4325643A25643A25647D24DA
:1008C000000000007B4125643A25643A25643A25FE
:1008D000647D2400FEE70000014800F014BF000022
:1008E0009801002038B500240091082322462146B3
:1008F00000F014F8054640F6FF7301E0641CA4B252
:10090000284600F063F8072801D09C42F6D39C42A9
:1009100001D3012038BD002038BD0000F0B5294CBE
:10092000059E25686D0101D5002508E025682D018B
:1009300001D5012503E02468E4003ED50225224CC0
:10094000002704EB0514C4F88075A9B35FEAC00062
:10095000D4F880750743C4F88075D4F8800540EA60
:100960008100C4F88005D4F8800540EA4200C4F84C
:100970008005D4F8841503F00F0021F00F01C4F8AE
:100980008415D4F884150143C4F884153079D6F859
:10099000051040EA0120C4F88C053078D6F8011023
:1009A00040EA0120C4F88805D4F8800540F0010031
:1009B000C4F880052846F0BD01E0FF20FBE74005B4
:1009C000C6E700000864004000600040174928B1F5
:1009D000012810D002281BD005207047086800F0BD
:1009E00001020868096800F00200104301F080610C
:1009F00040EA11607047086800F001020868096861
:100A000000F00200104301F0006140EA51607047BD
:100A1000086800F001020868096800F0020010434D
:100A200001F0805140EA9160704700000864004086
:100A30007CB5144D00206C46295C2154401CC0B28A
:100A40000828F9D3214640F20110FFF74BFF0020A0
:100A50002918097A2154401CC0B20828F8D36946E5
:100A60004FF48170FFF73EFF00202918097C2154C4
:100A7000401CC0B20828F8D3694640F20310FFF7C3
:100A800031FF7CBD260A0020024610B50020012956
:100A900003D000290BD10A4B0EE0094B0021323B59
:100AA00003E05C5C6040491CC9B29142F9D310BDBF
:100AB0005C5C6040491CC9B29142F9D310BD000092
:100AC000580A0020704700002DE9F0472DED0E8BED
:100AD000B0EE419AB0EE408AF0EE0CAAFD4BDFF882
:100AE000F883FE4E1878FE4FF8EE0C8A9FEDFDCB92
:100AF0009FEDFEAAFE4AFF4DFF4CF6EE009A08B1AC
:100B0000012810D1B0EE491AB0EE480A04F05CFD9D
:100B1000FA4890ED008A90ED01DA90ED029A18788B
:100B200068B301284AD0C0B202287CD003287BD009
:100B300004287AD0052879D192ED000AB0EE6A1A1D
:100B400069EE000AB0EE480A00EEE90A00EEA98A52
:100B5000F0EE680A85ED020A84ED028A07F091FB47
:100B600085ED020A94ED020AB0EE6A1AF0EE680A08
:100B700007F087FB84ED020A86ED02AAB1E098ED4A
:100B8000000AD2ED000A3DEE081A78EE4D1A70EE1A
:100B9000200AB0EE410AB0EE612A09EE600A09EEC1
:100BA000602A09EE201A49EE201A85ED020A84ED2A
:100BB000022A86ED021AC7ED021A8AE1DFF84083A5
:100BC000F0EE4D0A98ED000A40EE090A20EE090AFF
:100BD00010EE100AC5ED020A08F064F96DEE299ACC
:100BE00041EC1B0B19EE900A08F05CF941EC1E0B6E
:100BF00018EE100A08F056F941EC1D0BB0EE4C0A45
:100C0000F0EE6C0A05F050FF9FEDBE1B51EC100B8F
:100C100053EC112B07F050FE53EC1D2B07F04CFE4C
:100C200053EC1E2B03E062E026E13CE15BE008F0C0
:100C30004FF853EC1B2B07F095FB07F061FBA0600E
:100C400098ED000A20EE090A10EE100A08F02AF9C1
:100C500041EC1B0B19EE900A08F024F941EC190B3A
:100C600018EE100A08F01EF941EC1D0BB0EE4C0A0C
:100C7000F0EE6C0A05F018FF9FEDA41B51EC100B71
:100C800053EC112B07F018FE53EC1D2B07F014FE4C
:100C900053EC192B08F01CF853EC1B2B07F062FBEC
:100CA00007F02EFBB06095ED020AB0EE6A1AF0EE86
:100CB000680A07F0E6FA85ED020A94ED020AB0EE42
:100CC0006A1AF0EE680A07F0DCFA84ED020A96ED83
:100CD000020AB0EE6A1AF0EE680A07F0D2FA86ED60
:100CE000020A87ED02AABDEC0E8BBDE8F0879FEDEE
:100CF00089EA92ED000A914620EE290A10EE100AC8
:100D000008F0D0F841EC1B0B19EE100A08F0CAF8F5
:100D100041EC100B05F008FFB0EE40DAF0EE60DABF
:100D2000D8F8000008F0BEF853EC1D2B07F0D6FBF6
:100D300053EC1B2B07F0CCFF07F0E2FA01EE900A10
:100D40009FED751ADFED750AB0EE490A07F099FAC2
:100D5000B5EEC00AB0EE409AF1EE10FA16D099ED59
:100D6000000AF0EE610A40EE690A60EE880A80EE41
:100D7000A11AF0EE610A40EE290A20EE880AC0EEC0
:100D8000210A85ED021AC4ED020A03E085ED028A0C
:100D900084ED028A9FED620A29EE000A10EE100A25
:100DA00008F080F841EC1D0B19EE100A08F07AF8F3
:100DB00041EC100B9FED5B1B05F05AF89FED5B1BA0
:100DC00051EC100B53EC112B07F076FD41EC1B0B93
:100DD00019EE100A08F066F841EC100BB0EE4C1A50
:100DE000F0EE6C1A05F044F89FED521B51EC100B1D
:100DF00053EC112B07F060FD53EC1B2B07F0B2FAFC
:100E000053EC1D2B07F064FF9FED4C1B53EC112B93
:100E100007F0A8FA07F074FA00EE100ADFED490AAD
:100E200070EE600A9FED480A484BB0EE6A1A00EE79
:100E30008E0AF0EE680ABDEEC00A83ED000A95ED59
:100E4000020A07F01EFA85ED020A94ED020AB0EEDE
:100E50006A1AF0EE680A07F014FA84ED020A86EDC9
:100E600002AA87ED02AA40F698024FF4487118686A
:100E700007F017FA186036E792ED000AF0EE480A1C
:100E8000B0EE6A1A29EE000A40EE690A00EE298ADD
:100E9000C5ED020AF0EE601A84ED028AF0EE680AEF
:100EA000B0EE610A5AE692ED000AD8ED000A30EE83
:100EB000200A60EE090AB0EE480A00EEE90A00EEE8
:100EC000A98A85ED020A84ED020A86ED028A87ED81
:100ED000028A3DE0CD00002010010020D40A00204D
:100EE000E80A0020000000000000084000000000A8
:100EF0000C010020AC0A0020C00A0020A00A00203B
:100F000014010020000000000000E0BF000000000D
:100F10000000E03FD7231F440AD7A33E48E1FABEB2
:100F2000E5D0E23F000000000000004000000000AB
:100F3000D34DF43F000000809318E4BF0000000090
:100F4000022BF93F4C37C93F0080BB44F40000201E
:100F5000B0EE6A1AF0EE680A07F093F985ED020A1E
:100F600094ED020AB0EE6A1AF0EE680A07F089F909
:100F700084ED020A96ED020AB0EE6A1AF0EE680AF3
:100F800007F07FF986ED020A97ED020AB0EE6A1AC1
:100F9000F0EE680A07F075F987ED020AA3E672B66B
:100FA000FEE700001FB5694600900720029001206F
:100FB00001900B4800F0CCF9094800F025FB1E21F8
:100FC000074800F0CBFA064800F068FA800503D520
:100FD000034800F065FA84B204B0204610BD00005A
:100FE00050010020F0B463486349037863480E78E9
:100FF0000578634804789FED630A634ADFED632A4E
:10100000DFED631A634F9FED642A6449D7ED000A50
:101010006348B1EE601A53B1012B08D0092C64D299
:10102000DFE804F0634144474C4F54576000092CFB
:1010300024D2DFE804F02305080B0E13181B1E0052
:10104000C1ED000A0CE0C1ED000A04E081ED000AE8
:1010500001E081ED001A82ED001A4EE081ED001AE8
:1010600082ED000A49E081ED001A04E081ED000AFA
:1010700001E0C1ED000AC2ED000A3EE081ED000A88
:1010800082ED000A012E02D0012D05D008E080EE8D
:10109000A20A20EE020A03E080EEA20A20EE210A54
:1010A00080ED000A29E0C1ED000A0CE0C1ED000A64
:1010B00001E081ED000AC0ED001A0EE081ED001A9A
:1010C000F9E781ED001A80ED000A06E081ED001AD3
:1010D00001E081ED000A80ED002A012E08D0012DEB
:1010E00009D00AE0C1ED000AF5E781ED000AEAE760
:1010F00080ED002A01E0C0ED001A022B06D0032B80
:1011000011D0052B0FD0042B0DD01FE090ED000A5D
:10111000F0EE000A20EE200AF2EE020A80EE201A1B
:1011200080ED001A12E091ED000AB5EEC00AF1EE72
:1011300010FA90ED000A03D2B1EE400A80ED000AE9
:1011400020EE200AC0EE220AC0ED000AD1ED000A0E
:101150009FED141A80EE810A81ED000AD2ED001A8B
:10116000C1EE810AC2ED000A90ED001AF0BCFFF753
:10117000ABBC0000CD0000201A0100201B010020A4
:10118000E000002000000000FC0000200000FA4306
:10119000DB0FC9BFD0000020DB0FC93FF8000020E3
:1011A0000001002000007A4410B502202DED048BD0
:1011B00003F0CEFF374C2060032003F0C9FF6060CE
:1011C000042003F0C5FFA060052003F0C1FF3249F1
:1011D000E060097806290FD2DFE801F03D034D4DAC
:1011E0003D4D94ED000AF8EEC09A94ED010A4AE0F4
:1011F00000EE100AB8EEC08A9FED280A284829EEB2
:10120000801AD0ED000A274861EE201A90ED001AEE
:10121000254881EE812A69EE001A61EEA01A80ED60
:10122000002A81EE812A68EE801A204828EE000A02
:1012300061EEA01A20EE200AC0EE010A80ED002A1D
:101240001B4881EE812A80ED002A1A48C0ED000A71
:10125000BDEC048B10BD94ED000AA168F8EEC09AB5
:1012600094ED010A49424042B8EEC09A00EE101ACD
:10127000F8EEC08ABCE794ED000A6168F8EEC09A07
:10128000494200EE101AB8EEC09A94ED020AF8EE48
:10129000C08AADE7780A0020CD0000200000C842D7
:1012A0000801002004010020AC0A0020C00A002030
:1012B000D40A0020E80A00202DE9F04100250E465E
:1012C00007462C4608E03846FFF76CFE054405202B
:1012D00006F086FA641CE4B2B442F4D3B5FBF6F02F
:1012E00080B2BDE8F081000010B50820FFF75AFE7B
:1012F00007F092FA9FED0E1B53EC112B07F0DCFA6E
:101300009FED0D1B53EC112B07F0D6FA9FED0C1B34
:1013100053EC112B07F0D0FA9FED0B1B53EC112B64
:1013200007F0CAFA06F0ECFF00EE100A10BD00004C
:101330006666666666660A40000000000000264099
:101340000000008014AEEF3F000000000000303FBE
:1013500078B50024009490F83C20012A19D001228D
:1013600080F83C200A6807230568092A13D9EE682B
:101370000A3A02EB420293409E43EE600B788A6881
:101380000A3B03EB43039A400368DD682A43DA60B3
:1013900010E0022078BD2E6902EB420293409E438A
:1013A0002E610B788A6803EB43039A4003681D693A
:1013B0002A431A614A681F23072A13D205686E6BF5
:1013C000521E02EB820293409E436E630B790A88A1
:1013D0005B1E92B203EB83039A4003685D6B2A4362
:1013E0005A6327E005680D2A12D22E6BD21F02EB3A
:1013F000820293409E432E630B790A88DB1F92B2D0
:1014000003EB83039A4003681D6B2A431A6311E0C0
:10141000EE6A0D3A02EB820293409E43EE620B7934
:101420000A880D3B92B203EB83039A400368DD6A9E
:101430002A43DA62164B0568144A9D4206D10D68AC
:10144000122D03D1556845F48005556005689D420D
:1014500018D10B68102B01D0112B13D1536843F412
:1014600000035360096810290CD10A490A4A096827
:10147000B1FBF2F101EB8101490000E0491E00914E
:101480000029FBD180F83C40002078BD00230140BA
:10149000002001401C00002040420F00006C7047FB
:1014A0000068C06C704770B504004FF0000503D0B1
:1014B000206C002610B107E0012070BD204600F02E
:1014C0001DF8666484F83C60206CC00610D4206C63
:1014D00020F4885040F0020020642046FFF7CAF84C
:1014E0006664206C20F0020040F00100206400E0FF
:1014F000012584F83C60284670BD000010B586B018
:10150000044614216846FEF7C5FF11492068884249
:101510001BD110480021026842F48072026000680A
:1015200000F4807005900B481438026842F0020203
:101530000260006800F00200059003200090CDE9F1
:1015400001016946044800F01DFB06B010BD000013
:101550000020014044380240000402402DE9F041DF
:10156000044600680D4681684FF0000749050BD519
:101570008068C00508D5206C40F02000206484F805
:101580003C700120BDE8F08100F0FAFB064613E054
:10159000681C11D025B100F0F3FB801BA8420BD9C9
:1015A00020680068800707D4206C40F004002064A5
:1015B00084F83C700320E5E7206800688007E7D5E1
:1015C00021686FF012000860206C40F40070206405
:1015D0002068816811F0405F13D1217E89B9C16A0A
:1015E00011F4700F02D0806840050AD4206C20F4FA
:1015F00080702064206CC00403D4206C40F0010093
:1016000020640020BEE7000018B50021009190F88A
:101610003C20012A07D0012280F83C200268936810
:10162000DB0702D011E0022018BD936843F00103EC
:1016300093602E4A2E4B1268B2FBF3F202EB420289
:1016400000E0521E0092002AFBD102689368DB077B
:1016500042D0036C40F20164A34343F480730364FB
:1016600053685B0505D5036C23F4005343F48053A2
:101670000364036CDB0404D5436C23F0060343646A
:1016800000E0416480F83C101A496FF022031360B7
:1016900049680068CA06184906D0884224D1816882
:1016A00011F0405F13D01FE08842F8D0134A9042F7
:1016B00003D1D1F80423D206F1D0114A904213D1BC
:1016C000D1F8041301F01F011029E8D30CE0816860
:1016D00041F08041816007E0016C41F0100101643C
:1016E000416C41F001014164002018BD1C00002044
:1016F00040420F0000230140002001400021014032
:101700000022014070472DE9F05F05460068002483
:101710004669D0F804908768D0F80CB0D0F810A0D3
:10172000D0F81880F10748D0F90714D00121816062
:10173000B80703D5284600F0C3F90CE0780702D5B6
:101740004FF4006407E0380702D54FF4805402E0FC
:10175000284600F0B4F9F80516D529684FF48070D2
:101760008860B80503D5284600F0ACF90CE0780590
:1017700002D544F4005407E0380502D544F480440F
:1017800002E0284600F09DF9F80316D529684FF4C9
:1017900080308860B80303D5284600F095F90CE046
:1017A000780302D544F4004407E0380302D544F43A
:1017B000803402E0284600F086F9300707D55FEA5A
:1017C000CB6004D52968102044F40074C860700709
:1017D0004FF0080707D55FEA0B7004D52868C7608B
:1017E000284600F067F9B00706D52868C06880076A
:1017F00002D0284600F05FF9700607D55FEACA609C
:1018000004D52968102044F480640861B00607D527
:101810005FEA0A7004D528680761284600F04CF991
:10182000F00606D528680069800702D0284600F037
:1018300044F9B00308D55FEAC96005D529681020CE
:101840004860284600F03AF9F00307D55FEA0970CE
:1018500004D528684760284600F037F9300446D59B
:101860005FEA497040D5F00504D55FEAC87001D041
:1018700044F00104B00504D55FEA887001D544F056
:101880000204700504D55FEA487001D544F00404F1
:10189000300529D518F0700F26D008F070004028C8
:1018A00015D006DC102809D020280AD0302816D1FF
:1018B0000AE050280ED0602811D10EE044F0080450
:1018C0000DE044F010040AE044F0200407E044F086
:1018D000400404E044F0800401E044F4807428688B
:1018E000816921F070018161296804204860002C21
:1018F00005D0686A204368622846FFF703FFBDE809
:10190000F09F70B5040003D094F8200010B104E0FB
:10191000012070BD204600F081F82068016841F088
:101920000101016000F02CFA0546052604E000F0F4
:1019300027FA401B0A2811D820684068C007F6D053
:101940002068016821F00201016000F019FA0546E3
:101950000BE000F015FA401B0A2806D9606A40F433
:101960000030606284F82060D2E720684068800719
:10197000EFD4207E0128206801683DD021F080014D
:101980000160607E01282068016838D021F04001A4
:101990000160A07E01282068016833D021F0200179
:1019A0000160E07E0128206801682ED041F010011E
:1019B0000160207F01282068016829D021F00801FA
:1019C0000160607F01282068016824D021F00401B3
:1019D0000160D4E902010843D4E904121143084329
:1019E0006168491E08432168C861002060620120C7
:1019F00084F82000002070BD41F08001C0E741F074
:101A00004001C5E741F02001CAE721F01001CFE70E
:101A100041F00801D4E741F00401D9E7F0B587B0FF
:101A2000044614216846FEF735FD1E4920688842A9
:101A300036D11D480025016841F000710160006841
:101A400000F00070059018481038016841F001015D
:101A50000160016801F001010591016841F0080190
:101A600001600068022400F0080005904FF4006057
:101A7000032609278DE8F10069460C4800F082F83A
:101A800001AA009482E8F0006946094800F07AF85B
:101A900003220121142000F0E3F9142000F0D2F910
:101AA00007B0F0BD00640040403802400000024032
:101AB000000C02407047704770477047704770478E
:101AC0007047704770477047704770472DE9F04185
:101AD0000446876D00F054F9064694F83500002559
:101AE000022806D08020606584F834500120BDE8CB
:101AF000F0812068016821F01601016020684169C9
:101B000021F080014161206C08B9A06C20B12068EF
:101B1000016821F0080101602068016821F00101DD
:101B200001600CE000F02CF9801B052807D920206B
:101B30006065032084F8350084F83450D7E72068C6
:101B40000068C007EED194F85C103F208840B86070
:101B5000012084F8350084F834500020C7E790F85D
:101B60003510022903D080214165012070470521ED
:101B700080F835100068016821F001010160002043
:101B8000704700002DE9F84FDFF8BCA100220125C5
:101B90000AF1040B03264FF00F090BF1040E00BFEE
:101BA0000B6805FA02F42340A34270D10F7907F0C5
:101BB0000307012F01D0022F16D187684FEA420890
:101BC00006FA08FC27EA0C07D1F80CC00CFA08FC4E
:101BD0004CEA070CC0F808C04768A7430C79C4F367
:101BE000001494403C4344600C79E443A4070AD0B9
:101BF000C4684FEA420C06FA0CF7BC438F6807FA38
:101C00000CF72743C7600C7904F00304022C12D1AF
:101C1000D40800EB840CDCF820405707FF0E09FACB
:101C200007F824EA0804D1F8108008FA07F848EA0F
:101C30000408CCF8208004684FEA420C06FA0CF73E
:101C4000BC430F7907F0030707FA0CF72743076037
:101C50004C6814F4403F70D03C4C276847F48047F0
:101C60002760246822F0030704F480440094384C71
:101C700007EB040CDCF8084897074FEA177809FAD5
:101C800008F7BC43334FB84202D1002724E054E0A8
:101C9000314FB84201D101271EE0304FB84201D187
:101CA000022719E02E4FB84201D1032714E02D4F2F
:101CB000B84201D104270FE02B4FB84201D10527CC
:101CC0000AE02A4FB84201D1062705E0284FB84262
:101CD00001D1072700E0082707FA08F72743CCF8C7
:101CE0000878DAF800405746D1F804C09C435FEA10
:101CF000CC3C00D51C433C60DBF800405F46D1F88B
:101D000004C09C435FEA8C3C00D51C433C60DEF879
:101D100000407746D1F804C09C435FEACC2C00D544
:101D20001C433C60084F0C373C68D1F804C09C430E
:101D30005FEA8C2C00D51C433C60521C102AFFF437
:101D40002FAFBDE8F88F0000003C0140443802404E
:101D50000030014000000240000402400008024040
:101D6000000C024000100240001402400018024023
:101D7000001C02400AB1816170470904FBE70000C2
:101D80000148806870470000100000200248816808
:101D90000278114481607047100000200B4810B594
:101DA000016841F400710160016841F480610160E3
:101DB000016841F480710160032000F071F8002097
:101DC00000F006F800F024F8002010BD003C0240AE
:101DD00070B50D4D04464FF47A712878B1FBF0F0E0
:101DE0000A490968B1FBF0F000F00CFB48B9102C6F
:101DF00007D200222146501E00F032F800206C600D
:101E000070BD012070BD0000100000201C000020EB
:101E10000B4882B0016841F480410160006800F421
:101E2000804000900648001F016841F08051016029
:101E3000006800F080500090052002B000F030B83B
:101E400044380240002809DB00F01F0201219140C4
:101E50004009800000F1E020C0F800117047000048
:101E6000F0B40E4B1B680C46C3F30223C3F1070505
:101E7000042D00D90425191D072901D2002300E0F3
:101E8000DB1E012606FA05F1491E214099409E40BD
:101E9000761E16403143F0BC03F0D7BF0CED00E0D6
:101EA000064900F0070208684FF6FF03184040EAB1
:101EB0000220034A10430860704700000CED00E068
:101EC0000000FA052DE9F0470E46050065D0DFF861
:101ED0001481D8F80000F7B200F00700B04207D232
:101EE00088F80070D8F8000000F00700B04254D124
:101EF00028683D4C810712D5400703D5206840F47F
:101F0000E05020602878000703D5206840F4604046
:101F100020602068A96820F0F0000843206028783D
:101F2000C0072DD0304968680839012812D002282E
:101F300013D0032811D00968890700292DDA2168F8
:101F400021F0030101432160FFF71AFF814641F2AE
:101F5000883A0EE009688903EFE709688901ECE730
:101F6000FFF70EFFA0EB0901514502D90320BDE8A0
:101F7000F0872068696800F00C00B0EB810FEFD1AA
:101F8000D8F80010404601F00701B14207D90770A8
:101F9000006800F00700B04201D00120E7E7287890
:101FA000400705D52068E96820F4E0500843206028
:101FB0002878000706D52068296920F4604040EAA7
:101FC000C100206000F038F82168084AC1F303110D
:101FD000515CC8400649086006480068FFF7F8FEF3
:101FE0000020C4E7003C0240083802408A90000804
:101FF0001C000020140000200448054900680968FE
:10200000044AC1F38221515CC84070471C00002083
:10201000083802409A900008044805490068096899
:10202000044AC1F34231515CC84070471C00002093
:10203000083802409A900008154810B5006810F062
:102040000C02144813D04110042A0FD0082A0ED1D4
:102050000F4C241F2268236802F03F025B0207D561
:102060002068C0F38810A0FB010106E0084610BDFF
:102070002168C1F38811A1FB00010023FEF718F9C4
:102080002168C1F30141491C4900B0FBF1F010BDCA
:10209000083802400024F4002DE9F84F04006ED007
:1020A0002078DFF84C93C007A9F104054AD009F164
:1020B00004000168C1F38101012908D00068C0F360
:1020C000810002280AD1D9F80000400206D528680C
:1020D000800337D560680028E1D033E06068B0F550
:1020E000803F10D0B0F5A02F286810D020F48030A9
:1020F0002860286820F4802028606068A8B1FFF775
:102100003FFE06460DE0286840F48030F4E740F4D6
:1021100080202860F7E700BFFFF732FE801B6428AD
:1021200073D828688003F7D50CE0FFF729FE064630
:1021300005E000BFFFF724FE801B6428F0D8286864
:102140008003F7D42078DFF8AC8280074FF0000AD4
:102150003ED5A748001D016811F00C0F08D000689B
:10216000C0F3810002280BD1D9F80000400207D447
:102170002868800716D5E068012800D112E033E115
:10218000E068B8B10120C8F80000FFF7F9FD064685
:1021900005E000BFFFF7F4FD801B0228C0D82868C7
:1021A0008007F7D52868216920F0F80040EAC100CF
:1021B00028600DE0C8F800A0FFF7E2FD064604E045
:1021C000FFF7DEFD801B02281FD828688007F7D4A0
:1021D0002078000722D5864F87486169703771B132
:1021E00001210160FFF7CCFD064604E0FFF7C8FDC2
:1021F000801B022809D838688007F7D50EE0C0F8A0
:1022000000A0FFF7BDFD064605E082E0FFF7B8FD40
:10221000801B02287DD838688007F7D420784007D3
:1022200068D5DFF8CCB100270BF13C0BDBF80000E0
:10223000C0000BD4DBF8001041F08051CBF8001047
:10224000DBF80000012700F0805000906B4E3068F2
:10225000C00510D4306840F480703060FFF790FD06
:10226000009005E0FFF78CFD0099401A022850D835
:102270003068C005F6D55E4EA0686C3601280FD0D8
:102280000528306810D020F001003060306820F060
:1022900004003060A068B8B1FFF772FD00900FE055
:1022A000306840F00100F4E740F004003060F7E7E8
:1022B000FFF766FD0099411A41F28830814266D8E5
:1022C00030688007F4D50EE0FFF75AFD009007E074
:1022D000FFF756FD0099411A41F28830814256D8E5
:1022E00030688007F4D42FB1DBF8001021F0805162
:1022F000CBF80010A069C8B33D49091D0968C1F3B6
:10230000810102294AD00228504607D0C8F860004F
:1023100000E03CE0FFF734FD04463BE04746C8F8E8
:102320006000FFF72DFD064605E000BFFFF728FD22
:10233000801B02282BD828688001F7D4D4E9070134
:102340000843A16A2E4A490802EB0141626A41EA48
:102350008211084394F82C1040EA0161C9F800107A
:1023600001203866FFF70CFD044606E03EE000BFA2
:10237000FFF706FD001B022809D828688001F7D561
:1023800034E000BFFFF7FCFC001B022802D9032049
:10239000BDE8F88F28688001F4D427E00128F7D041
:1023A000D9F80000E26900F4800191421CD1226A50
:1023B00000F03F01914217D147F6C071626A0140B7
:1023C000B1EB821F10D1A26A4FF0FF3300F440310D
:1023D00003EB5202B1EB024F06D194F82C1000F03F
:1023E0007060B0EB016F01D00120D1E70020CFE792
:1023F0000438024000004742800E4742007000400F
:102400000000FFFF10B5401EB0F1807F01D3012016
:1024100010BD4FF0E02460610F21601703F015FD3F
:102420000020A06107202061002010BD7047704788
:1024300010B590F83C20012A22D0012280F83C20DF
:10244000CA688C6822F4407222434C6822F480628D
:1024500022430C6822F4006222430C6922F4805269
:1024600022434C6922F400522243C969002322F41A
:1024700080420A4301684A6480F83C30002010BD65
:10248000022010BD70B590F83C20012A32D0012402
:1024900080F83C40022280F83D2003685A689D681D
:1024A00022F070060A6832435A60134B02689A425F
:1024B00014D0B2F1804F11D0104B9A420ED0104B75
:1024C0009A420BD00F4B9A4208D00F4B9A4205D03C
:1024D0000E4B9A4202D00E4B9A4204D1496825F025
:1024E00080031943916080F83D40002180F83C1042
:1024F000084670BD022070BD00000140000400408D
:1025000000080040000C0040000401400040014071
:102510000018004010B5040003D094F83D0010B13D
:1025200007E0012010BD002084F83C00204600F0A8
:102530001FF8022084F83D00211D206803F058F99F
:10254000012084F8460084F83E0084F83F0084F8B7
:10255000400084F8410084F8420084F8430084F885
:10256000440084F8450084F83D00002010BD0000C0
:1025700008B501681748814212D11748016841F037
:10258000200101600068002200F02000009002217C
:102590003720FFF765FCBDE808403720FFF752BC45
:1025A0000D480E4A001D914207D1016841F40031E7
:1025B0000160006800F4003009E0094A914207D147
:1025C000016841F480210160006800F480200090DF
:1025D00008BD0000001400404038024000440140A3
:1025E0000048014090F83D10012901D001207047BA
:1025F000022180F83D100168CA6842F00102CA60F9
:1026000000681149884214D0B0F1804F11D00F49B1
:1026100088420ED00E4988420BD00E49884208D01D
:102620000D49884205D00D49884202D00C498842A4
:1026300004D1816801F00701062903D0016841F047
:1026400001010160002070470000014000040040CB
:1026500000080040000C0040000401400040014020
:10266000001800402DE9F0410D46040003D094F815
:102670003D0018B108E00120BDE8F081002084F899
:102680003C00204600F040F8022084F83D0020681D
:10269000816844F2070291438160211D206803F0A4
:1026A000A7F8226890689169166A2B68AF6903439E
:1026B00040F20330814341EA0721A868EF690843EB
:1026C0004FF6FC418843E96840EA07200143286946
:1026D0002F6A000140EA0730084369686D6926F0F7
:1026E000AA0646EA0515294393602268906154F8CA
:1026F000460B0162012004F81F09E0752076E076A0
:102700002077A0750020B7E72DE9F04387B0044695
:1027100014216846FDF7BEFE5849D4F800C00027D2
:10272000564A10391226012403255548DFF85491E2
:10273000BCF1804F29D0DFF850810223C44557D126
:10274000106840F002001060106800F00200059070
:10275000086840F0020008600868029400F0020077
:1027600005903020CDE90006CDE90353694648467F
:10277000FFF708FA002202211D20FFF771FB1D2040
:10278000FFF760FB07B0BDE8F083136843F0010377
:102790001360126802F0010205920A6842F0010219
:1027A0000A600A6802F0010205920A6842F0020219
:1027B0000A600968CDE9024501F0020105914FF474
:1027C0000041CDE9001604946946FFF7DBF90820C3
:1027D000CDE90006CDE90245694604944846FFF775
:1027E000D1F9002202211C20FFF73AFB1C20C7E789
:1027F000264CA4451FD1106840F0040010601068FA
:1028000000F004000590086840F0020008600868C5
:10281000694600F002000590C0208DE88900CDE9EE
:1028200003734846FFF7AEF9002202211E20FFF78E
:1028300017FB1E20A4E7164CA445A3D1146844F04E
:1028400008041460126802F0080205920A6842F057
:1028500001020A6009680095CDE9013701F0010124
:10286000CDE9043103976946FFF78CF90022022174
:102870003220FFF7F5FA322082E7000040380240AC
:102880000000024000040240000400400008004034
:10289000000C004070B590F83E60044690F83F5040
:1028A00090F8423090F84320022021B104290ED044
:1028B000012E1BD114E0012E18D1012B16D184F862
:1028C0003E0084F8420001220021206820E0012D12
:1028D0000CD1012A0AD184F83F0084F8430014E0A7
:1028E000012D03D1012B01D1012A01D0012070BD9E
:1028F00084F83E0084F83F0084F8420084F84300E6
:1029000001220021206802F0D7FF01220421206863
:1029100002F0D2FF2068016841F00101016000204F
:1029200070BD70472DE9F041054690F83C00002647
:102930000C46012810D0012085F83C0072B1042A11
:102940001CD0082A2CD00C2A50D00126002085F853
:102950003C003046BDE8F0810220FBE7D4E90012DC
:10296000E368286803F078F82868816921F00C0191
:10297000816128688169A26811430FE0D4E90012DF
:10298000E368286803F0A8F82868816921F44061A9
:10299000816128688169A26841EA02218161D5E7E5
:1029A0002868D4E9002C277B016A21F48071016238
:1029B000C169036A21F0030141EA0C0121F0F00C26
:1029C00039074FF420674CEA116123F4206307EACA
:1029D00002221A43C16102622868C16921F00C0118
:1029E000C1612868C169A268114328E02868D4E958
:1029F0000027E168036A23F480530362D0F81CC007
:102A0000036A2CF4407C4CEA07274FF6FF7C27F43E
:102A100070470CEA013139434FF4204723F4204337
:102A200007EA02321A43C16102622868C16921F4CF
:102A30004061C1612868C169A26841EA0221C1619F
:102A400084E710B5040003D094F83D0010B107E00E
:102A5000012010BD002084F83C00204600F01EF844
:102A6000022084F83D00211D206802F0C1FE0120F3
:102A700084F8460084F83E0084F83F0084F8400063
:102A800084F8410084F8420084F8430084F844004C
:102A900084F8450084F83D00002010BD10B586B0D4
:102AA000044614216846FDF7F5FC17492068884262
:102AB00028D116480021026842F002020260006834
:102AC00000F00200059011481438026842F0040238
:102AD0000260006800F0040005904FF470700090F0
:102AE0000220CDE901010320CDE903106946084821
:102AF000FFF748F8022211462E20FFF7B1F92E20E9
:102B0000FFF7A0F906B010BD0004014044380240B0
:102B10000008024070B50446006801694FF00005E6
:102B2000C943890715D4C168C943890711D4E91E6F
:102B3000016101202077206880698007204602D04B
:102B4000FFF7EFFE04E000F00FF9204600F0D0F9A7
:102B5000257720680169C943490717D4C168C9436B
:102B6000490713D46FF00401016102202077206827
:102B7000806910F4407F204602D0FFF7D2FE04E0C7
:102B800000F0F2F8204600F0B3F9257720680169DB
:102B9000C943090716D4C168C943090712D46FF0A5
:102BA00008010161042020772068C0698007204661
:102BB00002D0FFF7B6FE04E000F0D6F8204600F0A1
:102BC00097F9257720680169C943C90617D4C168F8
:102BD000C943C90613D46FF01001016108202077A2
:102BE0002068C06910F4407F204602D0FFF799FEAC
:102BF00004E000F0B9F8204600F07AF92577206863
:102C00000169C943C90708D1C168C943C90704D1CB
:102C1000891E0161204600F0D1F920680169C9438D
:102C2000090609D4C168C943090605D46FF08001BB
:102C300001612046FFF7FAFB20680169C943490694
:102C400009D4C168C943490605D46FF04001016148
:102C5000204600F0A9FA20680169C94389060BD40F
:102C6000C168C943890607D46FF02001016120467D
:102C7000BDE87040FFF7DBBB70BD000070B586B0EB
:102C8000044614216846FDF705FC24682E4D0022F9
:102C90002E4902232E48AC420ED10C6844F0100499
:102CA0000C60096801F0100105914FF4D4410091C6
:102CB000CDE90132012142E0264E0325B4420DD177
:102CC0000C6844F010040C60096801F010010591D3
:102CD00060211DE0FEF756FF06B070BD1E4E1F4876
:102CE000B44209D10C6844F002040C60096801F098
:102CF0000201059181150BE0194EB4420FD10C6809
:102D000044F002040C60096801F00201059171159C
:102D10000091CDE90132CDE903256946DAE7114D8D
:102D2000AC42D9D10C6844F002040C60096801F08F
:102D300002010591E9000091CDE901320921CDE9B7
:102D400003216946C6E70000000001403038024018
:102D500000100240004001400044014000040240D5
:102D60000048014000180040704770B5044690F8D4
:102D70003C0000260D4601280FD0012084F83C00BD
:102D80006AB1042A1DD0082A2FD00C2A3FD0012670
:102D9000002084F83C00304670BD022070BD2068E1
:102DA00002F098FD2068816941F008018161206886
:102DB000816921F004018161206881692A691143D8
:102DC00011E0206802F0B6FD2068816941F40061DD
:102DD00081612068816921F4806181612068816955
:102DE0002A6941EA02218161D2E7206802F0D8FD18
:102DF0002068C16941F00801C1612068C16921F002
:102E00000401C1612068C1692A69114311E0206889
:102E100002F0FAFD2068C16941F40061C1612068D7
:102E2000C16921F48061C1612068C1692A6941EAF0
:102E30000221C161ACE710B5040003D094F83D0055
:102E400010B107E0012010BD002084F83C002046AE
:102E500000F01EF8022084F83D00211D206802F0D9
:102E6000C7FC012084F8460084F83E0084F83F0047
:102E700084F8400084F8410084F8420084F843005C
:102E800084F8440084F8450084F83D00002010BD1B
:102E900008B5134A01681348914207D1016841F00F
:102EA00001010160006800F0010009E00E4A914252
:102EB00008D1016841F480310160006800F480307D
:102EC000009008BD09488142FBD10648001F0168F7
:102ED00041F040010160006800F04000F0E70000B0
:102EE000000001404438024000400140001800400A
:102EF0007047000010B50446022249B104290ED0E3
:102F0000082913D094F84100012816D0012010BDE3
:102F100094F83E000128F9D184F83E200FE094F89F
:102F20003F000128F2D184F83F2008E094F84000E7
:102F30000128EBD184F8402001E084F841200122EF
:102F4000206802F0B9FC16492068164A884201D070
:102F5000904203D1436C43F40043436420688842A9
:102F600013D0B0F1804F10D00F4988420DD00F49D7
:102F700088420AD00E49884207D0904205D00D49B8
:102F8000884202D00C49884204D1816801F00701CF
:102F9000062903D0016841F001010160002010BD45
:102FA000000001400004014000040040000800400F
:102FB000000C00400040014000180040F8B50068D7
:102FC000684988427CD1FEF7EFF86748002700681F
:102FD000002879D16548007810B1FEF703F816E0B3
:102FE0006348007810B102F0D3F810E0614800782F
:102FF00010B101F0DDFF0AE05F4890ED001A5F4874
:10300000D0ED000A5E4890ED000AFDF75DFD00F08E
:10301000A7FE5C4890ED000ABDEEC00A10EE100A53
:1030200002F076FD28B100231A461946184600978B
:1030300048E0554CD4ED020A94ED000A00F098FDEA
:1030400000EE100A514DB8EEC00A84ED010AD5ED2C
:10305000020A95ED000A00F0C9FD00EE100A4C4E80
:10306000B8EEC00A85ED010AD6ED020A96ED000A17
:1030700000F0FAFD00EE100A464BB8EEC00A86EDED
:10308000010AD3ED020A93ED000A00F02BFE00EED8
:10309000100A44F23C10B8EEC00A83ED010A00F0B9
:1030A00089FE3D48007806280ED2DFE800F0031DB7
:1030B00030584C58009793ED010AB1EE400A16E0E3
:1030C00011E001E002F046FA00F041FF642000F058
:1030D00059FE32488168491C81600A2903DD304A63
:1030E000012111608760F8BD009793ED010ABDEEE4
:1030F000C00A10EE103A96ED010A00BFBDEEC00AFC
:1031000010EE102A95ED010AB1EE400A10E02548B4
:103110000068009093ED010ABDEEC00A10EE103A6F
:1031200096ED010ABDEEC00A10EE102A95ED010AD7
:10313000BDEEC00A10EE101A94ED010ABDEEC00AF1
:1031400010EE100ABEE7009793ED010ABDEEC00A2B
:1031500010EE103A96ED010AB1EE400ACEE7009764
:10316000D8E7000000140040E4000020DD0000204B
:10317000DE000020DC00002000010020FC00002018
:10318000F800002000000020AC0A0020C00A002047
:10319000D40A0020E80A0020CD000020840000208E
:1031A00078000020F400002070477047704700004E
:1031B000F8B5016804460868CA684B6910F00F0F3B
:1031C0004FF000055AD003F0010602F49077374320
:1031D00065D0C10705D0D10503D5216C41F00101AF
:1031E0002164410705D5D90703D0216C41F00201C4
:1031F0002164810705D5D90703D0216C41F0040172
:103200002164010707D502F02001314303D0216C6E
:1032100041F008012164216C00293BD0800604D5CF
:10322000900602D5204602F0D0FC20684069216C4F
:10323000C0F3801001F00801014320462BD002F0BA
:103240009DFC20684069400621D52068143050E874
:10325000001F21F0400140E80012002AF5D1A06BC8
:10326000A8B16C490165A06BFEF779FC002811D06C
:10327000A06B016D01B0BDE8F040084783060ED594
:1032800093060CD52046BDE8F84002F09EBC2046CF
:10329000FFF78CFFF8BDFFF789FF2564F8BD266BAB
:1032A0002023012E79D1C60677D5D60675D50868B4
:1032B000486800904869400640D5A16B086840689E
:1032C0000004000CEAD0A28D8242E7D9E085C869EB
:1032D000B0F5807F2DD020680C3050E8001F21F41D
:1032E000807140E80012002AF5D12068143050E8BF
:1032F000001F21F0010140E80012002AF5D12068EA
:10330000143050E8001F21F0400140E80012002A6C
:10331000F5D184F83E30256320680C3050E8001F5A
:1033200021F0100140E80012002AF5D1A06BFEF751
:10333000CDFBA08DE18D401A81B229E0A08DE18DF9
:10334000401A81B2E08D0028A8D00029A6D02068BC
:103350000C3050E8002F22F4907240E80026002E36
:10336000F5D12068143050E8002F22F0010240E827
:103370000026002EF5D184F83E30256320680C30FD
:1033800050E8002F22F0100240E80023002BF5D176
:103390002046FFF70AFFF8BDFFE705062BD5150607
:1033A00029D594F83D002128F5D1A068B0F5805FBB
:1033B00001D12069B0B1206A411C216221680078E6
:1033C0004860E08C401E0004000CE084E3D12068DB
:1033D000C16821F08001C1602068C16841F04001EE
:1033E000C160D8E7206A0088C0F308004860206AFE
:1033F000801C2062E5E74006CDD55006CBD5CA68D3
:10340000204622F04002CA6084F83D3000F034FAD1
:10341000C1E700006D5B000870B5040004D094F8AB
:103420003D00002510B106E0012070BD84F83C503D
:10343000204600F023F8242084F83D002068C1686D
:1034400021F40051C160204602F020FC206801698F
:1034500021F4904101612068416921F02A01416114
:103460002068C16841F40051C1602564202084F8BF
:103470003D0084F83E00002070BD00002DE9F041C1
:1034800086B0044614216846FDF704F85B485A4BA1
:10349000226800245949103802250326DFF860818C
:1034A0009A4233D10A6842F480120A60096801F432
:1034B00080110591016841F004010160016801F08B
:1034C00004010591016841F008010160006802AA49
:1034D00000F0080005909814CDE90005082782E85F
:1034E000D00069464748FEF74DFB0420CDE90005B2
:1034F00002AA694682E8D0004046FEF743FB00225C
:1035000002213520FEF7ACFC352026E03E4F072394
:10351000BA4227D13949091D0A6842F010020A60EF
:10352000096801F010010591016841F00101016095
:103530000068029400F0010005904FF4C060CDE9EE
:103540000005CDE9036369463048FEF71BFB002206
:1035500001212520FEF784FC2520FEF773FC06B030
:10356000BDE8F0812A4FBA4221D10A6842F4003204
:103570000A60096801F400310591016841F0080111
:1035800001600068694600F0080005906020CDE900
:10359000000501200290CDE903034046FEF7F2FA50
:1035A000002201212620FEF75BFC2620D5E7194FDB
:1035B000BA42D4D10A6842F480220A60096801F450
:1035C00080210591016841F00801016000680294C2
:1035D00000F0080005904FF44070CDE90005CDE9FA
:1035E000036369464046FEF7CDFA002202212720F8
:1035F000FEF736FC2720B0E700500040403802407C
:10360000000C02400008024000100140000002408F
:10361000004400400048004090F83E30202B0ED17E
:1036200059B152B190F83C30012B08D0012380F8F9
:103630003C300023036302F097BB01207047022057
:10364000704700002DE9F04175492DED048B0068AD
:1036500088426FD17348734C012100780025241FE4
:10366000412810D1E278412A0DD16F4A137853B91D
:103670006E4B1D706E4B1D7011706E4A15706E4A48
:1036800015706E4A1570674BE0706D4A1B786D4F70
:10369000403BDEB2DFF8B0C16C4B4B2808D0492864
:1036A00008D04A2806D01B782BB1012B0BD01EE086
:1036B00019700CE01D70A0F14103072B2BD90828CD
:1036C00014DC107013E0432809D047280BD03D705C
:1036D0008CF8005041281ED045281CD006E03D70D3
:1036E0008CF8001002E039708CF800501570DFED96
:1036F000580A594E574B96ED000A9FED589A494A81
:10370000121F5828527808D0592809D07B2812D087
:103710007D2815D008E01670E9E730EE200A01E0B8
:1037200030EE600A86ED000A2778012F04D0022FC0
:1037300008D05EE06FE021709854521C627058E02F
:1037400002202070D878502805D05878232847D0F8
:10375000A27098462AE04248017041E06178081A58
:1037600005F043F841EC110B9FED3E0B02F080FB9E
:10377000A778B0EE408A08EB0700F0EE608A10F8F8
:10378000010C303805F031F853EC182B05F094F8A3
:1037900041EC180BE06805F085FB53EC182B04F0A6
:1037A000E1FD04F0ADFD7F1EE060A770A078042865
:1037B000D4D298F801003038032811D2DFE800F0A5
:1037C00002070B0094ED030A86ED000A08E094ED71
:1037D000030A264802E094ED030A254880ED000A1A
:1037E00025706570A57084ED039A32211948FCF7A5
:1037F00051FE96ED000AB5EEC00AF1EE10FA01D2C4
:1038000086ED009A0122BDEC048BBDE8F04105492C
:103810001848FFF701BFBDEC048BBDE8F081000044
:103820000044004074000020DD000020DC00002087
:10383000DE000020DF000020180100201901002018
:10384000E00000201A0100201B0100201C010020C4
:103850000000C842F4090020D00000200000000051
:103860001D0100200000000000002440D4000020C2
:10387000D8000020600500207047FEE770B50D4CB1
:103880000025C4F8A8520C48016821F440010160E9
:10389000016841F480010160C4F8AC52012004F5D4
:1038A0002A7403F0B7FF0120206003F0B3FF256006
:1038B00070BD0000008040420004024070B50D4C15
:1038C0000025C4F8A8520C48016821F440010160A9
:1038D000016841F4800101600126C4F8AC62304601
:1038E00004F52A7403F096FF2660012003F092FF8E
:1038F000256070BD00804042000402402DE9F04781
:10390000814618480025016821F4400101600168E2
:103910000160154E2C462F464FF00108C6F8A872DC
:10392000012003F077FFC6F8A8826806D6F82C12AB
:10393000000E11B140F0010501E020F00105012069
:1039400003F068FF641CE4B2082CE7D3B9F1000F60
:1039500004D0FFF7B3FF2846BDE8F087FFF78EFFDE
:10396000F9E70000000402400080404270B50D46B7
:10397000044600F01BF8204600F0B0F800F05EF8B6
:10398000284600F0ABF800F059F800F00FF844F0CA
:10399000010000F0A3F800F051F80120FFF7AEFF9E
:1039A000044600F02BF8204670BD000070B51148A9
:1039B000016821F440010160016841F48001016067
:1039C0000D4C0120C4F8AC02D4F82C1200290FD001
:1039D000C4F8A80203F01EFF0025C4F8AC52D4F8C6
:1039E0002C02002804D1012003F014FFC4F8A852CF
:1039F00070BD000000040240008040420D4810B538
:103A0000016821F440010160016841F48001016016
:103A1000094C0020C4F8A802C4F8AC02012004F547
:103A20002A7403F0F7FE012020606060BDE81040BA
:103A300003F0F0BE000402400080404270B512481E
:103A40000024016821F440010160016801600F4D0C
:103A50000126C5F8AC62304603F0DCFEC5F8A8626A
:103A600007E0641CE4B2322C03D9FFF7C7FF002043
:103A700070BD012003F0CEFED5F82C020028F0D155
:103A8000C5F8A802012070BD000402400080404239
:103A90002DE9F0411D4614460F468046069EFFF76D
:103AA00065FF631CFF2202FA03F1C4F108032B44F3
:103AB0005B1EDA401143CAB2C5F108018E40F1B273
:103AC000C4F10703D940104040EA0102394640469C
:103AD00000F034F80120BDE8F08100002DE9F0414C
:103AE00006461448016821F440010160016841F470
:103AF00080010160104C0027C4F8A8723D464FF0C9
:103B00000108F009C4F8AC027006060E012003F0AB
:103B100081FEC4F8A882012003F07CFEC4F8A872DC
:103B2000012003F077FE6D1CEDB2082DE9D3BDE84E
:103B3000F0810000000402400080404270B515464C
:103B40000E460446FFF732FF2046FFF7C7FFFFF798
:103B500075FF3046FFF7C2FFFFF770FF2846FFF7FB
:103B6000BDFFFFF76BFFFFF749FF012070BD0000AD
:103B7000174830EEC00A1749D0ED050A174A91EDF3
:103B8000001A70EE600A144960EE810A91ED001A85
:103B900041EE000A90ED041A70EE810A10EE901AC0
:103BA000C0ED040A914203DDDFED0D0AC0ED040A09
:103BB00010EE901A0B4A914203D9DFED0B0AC0EDCB
:103BC000040A80ED050ABDEEE00A10EE100A704707
:103BD00084000020D4000020D80000200078824615
:103BE00000788246007882C6007882C6174830EE98
:103BF000C00A1749D0ED080A174A91ED001A70EE75
:103C0000600A144960EE810A91ED001A41EE000A43
:103C100090ED071A70EE810A10EE901AC0ED070AB7
:103C2000914203DDDFED0D0AC0ED070A10EE901A98
:103C30000B4A914203D9DFED0B0AC0ED070A80ED74
:103C4000080ABDEEE00A10EE100A7047840000205A
:103C5000D4000020D80000200078824600788246F8
:103C6000007882C6007882C6174830EEC00A17492D
:103C7000D0ED0B0A174A91ED001A70EE600A144954
:103C800060EE810A91ED001A41EE000A90ED0A1AE9
:103C900070EE810A10EE901AC0ED0A0A914203DD1F
:103CA000DFED0D0AC0ED0A0A10EE901A0B4A9142A0
:103CB00003D9DFED0B0AC0ED0A0A80ED0B0ABDEE59
:103CC000E00A10EE100A704784000020D4000020A3
:103CD000D80000200078824600788246007882C6AC
:103CE000007882C6174830EEC00A1749D0ED0E0A98
:103CF000174A91ED001A70EE600A144960EE810ACD
:103D000091ED001A41EE000A90ED0D1A70EE810A55
:103D100010EE901AC0ED0D0A914203DDDFED0D0AA1
:103D2000C0ED0D0A10EE901A0B4A914203D9DFED57
:103D30000B0AC0ED0D0A80ED0E0ABDEEE00A10EE92
:103D4000100A704784000020D4000020D800002012
:103D50000078824600788246007882C6007882C663
:103D600010B5322003F082FB022805D10449034834
:103D70000A6802608988818010BD0000440100202B
:103D80004A010020094A68B109490B685B1C0B60B5
:103D9000834206D1D2F8B002C043C2F8B00200207C
:103DA000086070470120C2F8B0027047000040422E
:103DB0003400002000EE900A41421E4AB8EEE01A9C
:103DC00000EE901A00B592ED010AF8EEE00A04F058
:103DD00058FA00EE900A82ED010A174AB8EEE01A8E
:103DE00000EE901A92ED010AF8EEE00A04F049FAAA
:103DF00000EE900A82ED010A104AB8EEE01A00EED9
:103E0000901A92ED010AF8EEE00A04F03AFA00EE98
:103E1000900A82ED010A0A4AB8EEE01A00EE901A02
:103E200092ED010AF8EEE00A04F02BFA82ED010AA5
:103E300000BD0000AC0A0020C00A0020D40A002007
:103E4000E80A0020BC2801D3012210E0622801D337
:103E500002220CE02A2801D3032208E0142801D30F
:103E6000042204E00A2801D3052200E006221A21D8
:103E7000D020FFF763BE10B504464FF47A70844239
:103E800001D9044602E0042C00D20424B0FBF4F073
:103E9000401EC2B21921D020FFF750FE6008BDE8D5
:103EA0001040FFF7CFBF10B580226B21D020FFF765
:103EB00045FEC82003F094FC00226B21D020FFF7C0
:103EC0003DFE012000F03AF8002000F02EF83220EC
:103ED000FFF7D1FF00223821D020FFF72FFE00226C
:103EE0006A21D020FFF72AFE00222321D020FFF7ED
:103EF00025FE80223721D020FFF720FE7521D0201B
:103F0000FFF734FD682801D0012010BD01226B218C
:103F1000D020FFF713FE00226C21D020FFF70EFE09
:103F20003220FFF7A8FF002010BD08B50223009043
:103F300004221C21D020FFF7ABFD08BD08B50223E9
:103F4000009004221B21D020FFF7A2FD08BD10B570
:103F500000F02EF8BDE81040AFF3008070B53C21B2
:103F6000D020FFF703FD04463B21D020FFF7FEFCE5
:103F700004EB00200D4C3E212080D020FFF7F6FC02
:103F800005463D21D020FFF7F1FC05EB00206080C5
:103F90004021D020FFF7EAFC05463F21D020FFF763
:103FA000E5FC05EB0020A08070BD00003E01002074
:103FB00070B54421D020FFF7D9FC04464321D0201E
:103FC000FFF7D4FC04EB00200D4C46212080D020CC
:103FD000FFF7CCFC05464521D020FFF7C7FC05EBD9
:103FE000002060804821D020FFF7C0FC0546472113
:103FF000D020FFF7BBFC05EB0020A08070BD0000C7
:10400000380100207FB500241648009401940294E2
:104010001349039401604FF40031C0E901140461B5
:10402000047680F820401049C0E90A140125C561D2
:10403000C46080F830404561FDF735FA08B1FCF7FF
:10404000AEFF0820CDE90005694602940548FDF75A
:104050007FF908B1FCF7A3FF0248FDF7D5FA7FBD51
:1040600000200140500100200100000F104810B551
:104070000E4901600321416000214FF4C02281609C
:10408000C0E903124FF4A002426101764176012299
:104090008276C17601774177FDF733FC002803D0A3
:1040A000BDE81040FCF77BBF10BD0000006400407D
:1040B000980100202DE9F04387B014216846FCF7F1
:1040C000E9F947480024016841F0100101600168E6
:1040D00001F010010591016841F080010160016863
:1040E00001F080010591016841F001010160016862
:1040F00001F001010591016841F0020101600168D0
:1041000001F002010591016841F0080101600168B8
:1041100001F008010591016841F0040101600068A7
:10412000304F00F004004FF4A855059000222946B6
:104130003846FDF71FFEDFF8B0904FF4F04600223E
:1041400031464846FDF716FEDFF8A0800022B9157B
:104150004046FDF70FFE012211034046FDF70AFE1F
:1041600000950125CDE90154694638460395FDF7D0
:1041700009FDCDE90054694638460294FDF702FD79
:10418000E803CDE900040220029069463846FDF7B5
:10419000F9FC0096CDE90154694648460394FDF7C1
:1041A000F1FC4FF488500090CDE901546946404637
:1041B0000394FDF7E7FC4FF440600090CDE9015413
:1041C00069460B480394FDF7DDFC0820CDE90004A7
:1041D000694648460294FDF7D5FC07B0BDE8F08378
:1041E0003038024000100240000C02400000024043
:1041F0000004024010B588B01C216846FCF74AF95B
:10420000164815490024C0E9001444F29F11C0E982
:10421000024104618461FEF77DF908B1FCF7BFFE3D
:104220000E48FEF708FE08B1FCF7B9FE6020CDE9A4
:10423000000402940022694608480494FEF795FDA4
:1042400008B1FCF7ACFE00210448FEF753FE03481A
:10425000FEF714FD08B010BD00440140000400202A
:1042600010B588B01C216846FCF714F916481549AA
:104270000024C0E9001444F29F11C0E90241046126
:104280008461FEF747F908B1FCF789FE0E48FEF796
:10429000D2FD08B1FCF783FE6020CDE90004029452
:1042A0000022694608480494FEF75FFD08B1FCF758
:1042B00076FE00210448FEF71DFE0348FEF7DEFCF3
:1042C00008B010BD004801404804002010B588B077
:1042D0001C216846FCF7DEF81D481C4900240160DB
:1042E0005321C0E9011442F21071C0E90314846142
:1042F000FEF7A1FD08B1FCF752FE6020CDE90004F5
:1043000002940022694612480494FEF72EFD08B17B
:10431000FCF745FE042269460D48FEF726FD08B16C
:10432000FCF73DFE00210A48FEF7E4FD04210848A1
:10433000FEF7E0FD054940F2DC5038310860091F06
:1043400008600348FEF79AFC08B010BD0018004052
:104350009004002010B592B000240F941C216846F0
:104360001094FCF797F8202107A8FCF793F834483D
:104370003249C0E9001444F29F11C0E902410461CE
:1043800044618461FEF757FD08B1FCF708FE0F9405
:104390000FA92B481094FEF775F808B1FCF7FFFD44
:1043A0006020CDE900040294039404940594002253
:1043B000694623480694FEF7D8FC08B1FCF7EFFDE8
:1043C000042269461E48FEF7D0FC08B1FCF7E7FD61
:1043D000082269461A48FEF7C8FC08B1FCF7DFFD61
:1043E0000C2269461648FEF7C0FC08B1FCF7D7FD61
:1043F0000794089409944FF400500A94CDE90B40B7
:1044000007A90F480E94FEF713F808B1FCF7C7FD93
:1044100000210B48FEF76EFD04210948FEF76AFDF6
:1044200008210748FEF766FD0C210548FEF762FDEE
:104430000348FEF723FC12B010BD0000000001404D
:10444000C001002010B58CB024216846FCF722F88A
:104450000024194809944FF080410A94C0E90014DF
:104460004FF6FF71C0E90241046184610320CDE988
:1044700000040120CDE902040494CDE9054007942D
:1044800069460D480894FEF7EDF808B1FCF787FD82
:10449000099409A908480A94FDF7F4FF08B1FCF74C
:1044A0007EFD00210448FEF7F5F904210248FEF7DD
:1044B000F1F90CB010BD00000802002010B58CB05E
:1044C00024216846FBF7E6FF0024194809941749A0
:1044D0000A94C0E900144FF6FF71C0E9024104617B
:1044E00084610320CDE900040120CDE90204049495
:1044F000CDE90540079469460D480894FEF7B2F8E7
:1045000008B1FCF74CFD099409A909480A94FDF784
:10451000B9FF08B1FCF743FD00210548FEF7BAF9E1
:1045200004210348FEF7B6F90CB010BD00040040AA
:104530005002002010B58CB024216846FBF7AAFF7A
:1045400000241948099417490A94C0E900144FF649
:10455000FF71C0E90241046184610320CDE90004D8
:104560000120CDE902040494CDE905400794694691
:104570000D480894FEF776F808B1FCF710FD099491
:1045800009A909480A94FDF77DFF08B1FCF707FD6A
:1045900000210548FEF77EF904210348FEF77AF969
:1045A0000CB010BD000800409802002010B58CB07F
:1045B00024216846FBF76EFF002419480994174927
:1045C0000A94C0E900144FF6FF71C0E9024104618A
:1045D00084610320CDE900040120CDE902040494A4
:1045E000CDE90540079469460D480894FEF73AF86E
:1045F00008B1FCF7D4FC099409A909480A94FDF70D
:1046000041FF08B1FCF7CBFC00210548FEF742F959
:1046100004210348FEF73EF90CB010BD000C004029
:10462000E00200201CB500240E4800940C490194BF
:1046300001605321C0E9011442F20F718461C1602D
:10464000FDF768FF08B1FCF7AAFC0094694605482D
:104650000194FDF717FF002801D0FCF7A0FC1CBD5A
:10466000001400402803002010B586B000242A481A
:1046700005940494009401940294264903940160E3
:10468000A721C0E9011442F21071C0E9031444618A
:104690008461FEF7D6F908B1FCF781FC049404A903
:1046A0001D480594FDF7EEFE08B1FCF778FC0120EB
:1046B000CDE9004002940022694617480394FEF7B2
:1046C00031F908B1FCF76BFC042269461248FEF789
:1046D00029F908B1FCF763FC082269460E48FEF789
:1046E00021F908B1FCF75BFC0C2269460A48FEF789
:1046F00019F908B1FCF753FC0748FEF7BFFA0C2183
:104700000548FEF7F7FB034940F2DC5040310860F2
:1047100006B010BD000401407003002010B588B041
:104720001C216846FBF7B6FE194818490024C0E969
:10473000001444F29F11C0E9024104618461FEF754
:104740007AFB08B1FCF72BFC6020CDE90004029451
:10475000002269460E480494FEF707FB08B1FCF7F7
:104760001EFC042269460A48FEF7FFFA08B1FCF76E
:1047700016FC00210648FEF7BDFB04210448FEF7A5
:10478000B9FB0348FEF77AFA08B010BD00400140BB
:10479000B80300200E4810B50C4901604FF4E13118
:1047A0004160002181600C22C160C0E90412816176
:1047B000C161FEF731FE08B1FCF7F1FBBDE8104026
:1047C000012204490248FEF727BF000000500040C4
:1047D000D8040020820000200E4810B50C4901606A
:1047E0004FF4E1314160002181600C22C160C0E9D9
:1047F00004128161C161FEF70FFE08B1FCF7CFFB27
:10480000BDE81040012204490248FEF705BF000040
:10481000001001401C050020800000200E4810B54B
:104820000C4901604FF416514160002181600C2257
:10483000C160C0E904128161C161FEF7EDFD08B1FC
:10484000FCF7ADFBBDE81040012204490248FEF729
:10485000E3BE00000044004060050020740000201A
:104860000E4810B50C4901604FF4E1314160002160
:1048700081600C22C160C0E904128161C161FEF750
:10488000CBFD08B1FCF78BFBBDE8104001220449C9
:104890000248FEF7C1BE000000480040A405002009
:1048A00081000020FEE7FEE710B40021084B0A4615
:1048B0005FF0000003EBC004401CC0B262548028CB
:1048C000F8D3491CC9B20829F2D310BC00F096B83D
:1048D000E805002010B57F2816D83F2914D80723F3
:1048E000A3EBD10301F00701C1F107040121A140AD
:1048F000064CDBB204EBC000002AC25CC9B201D096
:104900000A4300E08A43C25410BD0000E8050020BD
:1049100010B5394C0020C4F8B002642004F52C74A2
:1049200002F05EFF012020600021AE2000F030F98F
:104930000021D52000F02CF90021502000F028F9AA
:104940000021A82000F024F900213F2000F020F9E8
:104950000021D32000F01CF90021084600F018F9CE
:104960000021402000F014F900218D2000F010F902
:104970000021142000F00CF90021202000F008F99B
:104980000021022000F004F90021A12000F000F92C
:104990000021C02000F0FCF80021DA2000F0F8F837
:1049A0000021122000F0F4F80021812000F0F0F83E
:1049B0000021EF2000F0ECF80021D92000F0E8F809
:1049C0000021F12000F0E4F80021DB2000F0E0F805
:1049D0000021302000F0DCF80021A42000F0D8F8FD
:1049E0000021A62000F0D4F80021AF2000F0D0F87C
:1049F000BDE81040FFF758BF0080414270B5114E2E
:104A0000002400BF04F1B000C0B2002100F0C0F8E3
:104A10000021084600F0BCF80021102000F0B8F892
:104A20005FF0000506EBC5000121005D00F0B0F865
:104A30006D1CEDB2802DF5D3641CE4B2082CE1D3DB
:104A400070BD0000E80500202DE9FF4F203A1F4609
:104A50000C46894602F0FF0A0025DDF834B032E04A
:104A60000C2F09D01A4901EB0A104FF00008465DDF
:104A7000300607D55A4609E016490AEB4A0001EB11
:104A80008000F2E7BBF1000F12D00022214600980F
:104A9000FFF720FF7006641C060EE4B2A4EB0900C9
:104AA000B84207D100984C46401CC0B2009008E0C4
:104AB0000122EBE708F1010000F0FF08B8F1080F50
:104AC000D6D36D1CEDB2BD42CAD3BDE8FF8F000046
:104AD00016950008A29000082DE9FF4F81B000262E
:104AE000DDF838A01D469346814634464FF0010854
:104AF0004FEA5A0727E0281B401EC1B20A2002F0E5
:104B000019FFBBFBF0F00A21B0FBF1F201FB120030
:104B100026B9691E8C4201DA48B101263030C2B292
:104B200007FB0490C0B25346CDF8008006E007FBB7
:104B30000490C0B253462022CDF800800299FFF7BE
:104B400083FF641CE4B2AC42D5D305B0BDE8F08F5E
:104B5000F8B516460D460446012714E07A2C02D912
:104B600000241035EDB23A2D03D900242546FFF775
:104B70009BFE009732780C2329462046FFF764FFFE
:104B80000834E4B2761C30780028E7D1F8BD000084
:104B900030B500230E4A012411B1C2F8AC4201E045
:104BA000C2F8AC325FF00001C2F8B832050602D597
:104BB000C2F8B44201E0C2F8B432C2F8B8424006CA
:104BC000491C000EC9B20829EED3C2F8AC4230BD70
:104BD000008041420020044902460A54401CC0B2F1
:104BE0000928FAD370470000E80900202DE9F843AE
:104BF00001258146ADF800501C4800264670ADF8EE
:104C000000501B4C80464FF6FF7725E0BDF80000B2
:104C100010EA090F02D0C4F8B05201E0C4F8B06243
:104C2000C4F8A052052002F0F5FDC4F8A0620520EA
:104C300002F0F0FDC4F8A052D4F83C0230B198F86C
:104C40000110BDF80020114388F80110BDF80000E4
:104C500007EA4000ADF80000BDF80000FF28D5D9F4
:104C6000BDE8F843102002F0D5BD0000E80900209F
:104C70000000424270B5FFF7ADFF00F0E3F80B48CB
:104C80000B4BB0F803100A48083341800020012480
:104C900013F8105000F101006D1E04FA05F20A42EB
:104CA000C0B202D01028F3D3002070BDE809002064
:104CB0003800002010B5154C0020C4F8A8021020C0
:104CC00004F52A7402F0A6FD0120FFF78FFF4320B0
:104CD000FFF78CFF0020FFF789FF0120FFF786FF19
:104CE0000020FFF783FF0020FFF780FF0020FFF781
:104CF0007DFF0020FFF77AFF0020FFF777FF0120FC
:104D00002060BDE81040102002F084BD0000424247
:104D100010B5154C0020C4F8A802102004F52A7420
:104D200002F078FD0120FFF761FF4320FFF75EFFEF
:104D30000020FFF75BFF0020FFF758FF5A20FFF726
:104D400055FF5A20FFF752FF5A20FFF74FFF5A2016
:104D5000FFF74CFF5A20FFF749FF01202060BDE814
:104D60001040102002F056BD0000424210B5FFF77F
:104D700081FF00EE100A25482A4BF8EE400A012276
:104D8000C0ED000A2248C17900EE101A2149B8EEA0
:104D9000400A81ED000A017A00EE101A1E49B8EEB1
:104DA000400A81ED000A417901EE101A1B49B8EE64
:104DB000411A81ED001A807910EE901A01EE100A66
:104DC0001748B1F1814FB8EE411A80ED001A16482C
:104DD00001D10178B9B15968002913D010EE101A29
:104DE000124B99420EDA017800290BD1104902705A
:104DF000002008700F4908700F4908700F490870AB
:104E00000F49087010BD5A60E8E70000300100202B
:104E1000E8090020200100202401002028010020B2
:104E20002C01002038000020DC0000200000EC42B3
:104E3000DE000020DD000020DF000020180100203F
:104E4000190100202DE9FC4100268DF800600124A5
:104E5000ADF80440244DC5F8A862244F3878FFF718
:104E6000C5FE7878FFF7C2FE02208DF80000DFF85B
:104E700080804FF6FF772FE0ADF8044020E000BFC0
:104E8000C5F8A042052002F0C5FCC5F8A0620520C7
:104E900002F0C0FCC5F8A042D5F83C0250B19DF824
:104EA0000010BDF8042018F8011011439DF80020EF
:104EB00008F80210BDF8040007EA4000ADF804004D
:104EC000BDF80400FF28DBD9102002F0A3FC9DF8F8
:104ED0000000401C8DF800009DF800000928CBD38D
:104EE000C5F8A842BDE8FC8100004242380000201D
:104EF000E809002010B500F00DF800F00BF800F004
:104F000009F8FFF7D7FE00F027F8BDE81040FFF7DB
:104F1000FFBE000010B50F4C0020C4F8A8021020FE
:104F200004F52A7402F076FC0120FFF75FFE4220B0
:104F3000FFF75CFE0020FFF759FE0020FFF756FE4A
:104F40000020FFF753FE01202060BDE81040102034
:104F500002F060BC0000424210B5144C0020C4F8BE
:104F6000A802012004F52A74FFF740FE4420FFF751
:104F70003DFE0020FFF73AFE0120FFF737FE032039
:104F8000FFF734FE0020FFF731FE0020FFF72EFE72
:104F90000020FFF72BFE0020FFF728FE01202060F5
:104FA000BDE81040102002F035BC00000000424275
:104FB000554830B4D0ED000A9FED540A54486FF0C4
:104FC000130370EE600AFDEEE00A10EE902AD0EDB9
:104FD000000A504870EE600AFDEEE00A10EE901AEA
:104FE000D0ED000A994230EE600ABDEEC00A10EE24
:104FF000100A02DD142900DA00219A4202DD142A87
:1050000000DA0022984202DD142800DA0020424B28
:10501000424DF1EE040A1C68414BAC4293ED000A8C
:1050200002D130EE200A04E03E4DAC4203D130EE16
:10503000600A83ED000AB5EEC00AF1EE10FA03D261
:105040009FED390A83ED000A00EE101A01EE902A56
:1050500002EE100AF8EEC00A93ED000AF8EEE11A2B
:10506000B8EEC22A20EE801ADFED332ADFED2F0AD8
:1050700061EE801A22EE222A21EE201A2C4B61EEDC
:10508000A01A2C4A62EE200A2C4883ED001A2C4903
:10509000C2ED001AC0ED000A09789FED2A2AF1B18D
:1050A00001291CD0022906D003290FD005290DD0D3
:1050B00004290BD019E0B0EE000A20EE800AF2EECF
:1050C000020A80EE202A80ED002A0EE0B5EEC01A1A
:1050D000F1EE10FA03D2F1EE600AC0ED000A20EE04
:1050E000800AC0EE020AC0ED000A9FED172A81EE89
:1050F000020AC1EE820A83ED000AC2ED000A90EDB9
:10510000001A30BCFBF7E0BC200100200000004387
:10511000240100202801002030010020000030413F
:10512000D000002000001041000000000000003C02
:10513000F8000020FC000020DB0FC93F0001002028
:10514000CD0000200000FA4300007A4470470000C0
:105150000021022807D003280BD004280BD00528F3
:105160000BD0002070474FF08042506A516200B26D
:105170007047044A02E0044A00E0044A10681160E3
:1051800000B270472404004024080040240C004072
:105190002DE9F0414FF4FA66614B771032463946FB
:1051A000186803F07EF85F4D18603246394628686B
:1051B00003F077F85C4C286032463946206803F0EB
:1051C00070F83246594E20603946306803F069F86D
:1051D00030602A6821681B686FF06304A2F2DC5219
:1051E000A0F2DC50A1F2DC51A3F2DC53A24202DDBA
:1051F000642A00DA0022A04202DD642800DA0020DE
:10520000A14202DD642900DA0021A34202DD642B01
:1052100000DA002300EE101A454CB8EEC00AD4EDB7
:10522000000A30EE800ABDEEC00A10EE101A002906
:1052300000DA00214FF4FA744A4392FBF4F2404240
:10524000484390FBF4F000EE102ADFED3C0A394AA7
:10525000B8EEC01A00EE100A5842374CF8EEC01AE9
:1052600000EE100A374882ED001AB8EEC00A364B3D
:10527000C4ED001A20EE202ADFED310A82EE200A6A
:1052800080ED000A1B7853B1012B08D0022B0DD002
:10529000032B12D0052B10D0042B0ED022E002EEEF
:1052A000101AB8EEC22A20EE020A17E0F0EE000A49
:1052B00020EE200AF2EE020A10E0B5EEC01AF1EE7E
:1052C00010FA03D2B1EE400A80ED000AB0EE402A97
:1052D00000EE101AB8EEC00A22EE000A80EE202A74
:1052E00080ED002A9FED190A194BC1EE000AC2EDAC
:1052F000000AC1EE800AC4ED000A197839B19FEDA9
:10530000150A491E82ED000A80ED000A197090ED21
:10531000001A92ED000ABDE8F041FBF7D5BB000092
:105320006000002064000020680000206C00002065
:10533000D0000020F8000020FC000020DB0FC93F57
:105340000000FA4300010020CD00002000007A4454
:10535000840000200000000010B551EC100B2DED72
:10536000068BB0EE438AF0EE629AB0EE42AAB0EE3F
:10537000619AF0EE418A02F0C3FFBDEECA0A1549F8
:1053800010EE102ABDEEE90A0860C1ED018A10EEA8
:10539000103A81ED059AC1E9022381ED048A990052
:1053A000514300EE101A0C49B8EEC00A81ED000A14
:1053B0009FED0A0A0A4928EE000A81ED000A094910
:1053C00008600948C0ED008A084880ED009ABDECED
:1053D000068B10BD880A002004010020DB0F494025
:1053E000080100200C010020100100201401002001
:1053F00070B53E4C4FF4AD700A2120600920FBF7D8
:105400005BFF21683A4C90FBF1F0C0B22070052898
:1054100001D905202070C0B29FED361A9FED363AB3
:1054200006281DD2DFE800F0031029343D48F0EED5
:10543000411A9FED323AF2EE0A2AB3EE0E2A9FEDA0
:10544000301A9FED300B09E09FED303AF2EE0A2A58
:10545000B3EE0E2ADFED2E1A9FED2E0BFFF77CFF29
:105460002578042208242D482D490723062D38D2FB
:10547000DFE805F02D3038383438F0EE411AF2EE1E
:105480000A2AB3EE0E2A9FED271A9FED270BE5E7B8
:10549000F2EE0A2AB3EE0E2AF0EE411A9FED240B2B
:1054A000DCE7F0EE411AF2EE0A2AB3EE0E2A9FED87
:1054B000221A9FED220BD1E79FED223AF2EE0A2A43
:1054C000B3EE0E2AF0EE411A9FED1F0BC6E7046003
:1054D0000E2005E0062202600A2001E004600B2095
:1054E000086070BD02600B6070BD0000F00000201D
:1054F000CD00002000000000B81E853D9A99993D1E
:105500007B14AE3D022B8716D9CEB73F8FC2753DB7
:10551000643BDF3D0000000000000000E8000020C8
:10552000EC000020BC74133E000000806ABCC43F45
:10553000000000A0EFA7C63FE926313E000000C0F2
:105540009DEFC73FC520303D000000E07A14CE3FFC
:1055500070470000F0B5174E174F059D44F29F1499
:10556000002803DA34602044386002E03C60201AEE
:1055700030601248002903DA44632144816302E069
:105580008463611A41630E48002A03DA44631119E7
:10559000816302E08463A11A4163002B03DAC463D0
:1055A0001919016402E00464E11AC1630548056049
:1055B000F0BD000034440140344801400040014047
:1055C000000001403818004000B5B0EE602AF0EE4F
:1055D000411AF0EE400A9FED470A474890ED001A45
:1055E000DFED462AF5EEC00AF1EE10FA02DD31EEEB
:1055F000001A0EE0F5EEC00AF1EE10FA02D231EE1A
:10560000401A06E0F5EEC00AF1EE10FA03D121EEE1
:10561000221A80ED001A3849B5EEC02A91ED011A20
:10562000F1EE10FA02DD31EE001A0EE0B5EEC02AFE
:10563000F1EE10FA02D231EE401A06E0B5EEC02AC1
:10564000F1EE10FA03D121EE221A80ED011A2A4957
:10565000F5EEC01A91ED021AF1EE10FA02DD31EE0C
:10566000000A0EE0F5EEC01AF1EE10FA02D231EEA9
:10567000400A06E0F5EEC01AF1EE10FA03D121EE71
:10568000220A80ED020AB0EE600A02F0E9F8B0EEFC
:10569000401AB0EE600A02F0E3F8F1EE400A90ED35
:1056A000000A02F0EEFD80ED000AB0EE420A02F0C0
:1056B000D7F8B0EE401AB0EE420A02F0D1F8F1EE9F
:1056C000400A90ED010A02F0DCFD80ED010AB0EE27
:1056D000610A02F0C5F8B0EE401AB0EE610A02F0BD
:1056E000BFF8F1EE400A90ED020A02F0CAFD80ED2B
:1056F000020A00BD0AD7233CA00A00206666663F66
:10570000FCF744BB30B593B030216846FAF7C2FECF
:1057100014210CA8FAF7BEFE1D480025016841F0CF
:1057200080510160006800F08050119019480168B4
:1057300041F4804101600068022400F4804011902F
:1057400001200090000401908001CDE9064008AAE4
:105750000420A82182E813000B906846FCF79CFC0B
:1057600008B172B6FEE70CA90F2081E831004FF4B2
:10577000A0500F904FF48050109005210CA8FCF71A
:10578000A1FB002801D072B6FEE713B030BD0000C7
:1057900040380240007000400248016841F4700146
:1057A0000160704788ED00E00148FDF7B3B90000E3
:1057B000080200200148FDF7ADB9000050020020AA
:1057C0000148FDF7A7B90000980200200148FDF745
:1057D000A1B90000E00200200148FDF79BB90000DC
:1057E000280300200148FDF795B900007003002050
:1057F000F0B50268254C264D264E274F274B4FF01B
:10580000804CA04209D0604507D0A84205D0B042E4
:1058100003D0B84201D0984204D122F0700E4A68F9
:1058200042EA0E02A0421BD0604519D0A84217D010
:10583000B04215D0B84213D0984211D0184DA842AA
:105840000ED0184DA8420BD0174DA84208D0174DC6
:10585000A84205D0164DA84202D0164DA84203D149
:1058600022F44075CA682A434D6922F080022A4317
:1058700002608A68C2620A688262A04201D09842CD
:1058800001D10969016301214161F0BD00000140BE
:105890000004004000080040000C004000040140EB
:1058A0000040014000440140004801400018004011
:1058B000001C00400020004010B501F01F03012132
:1058C000046A99408C430462016A9A401143016260
:1058D00010BD0000F0B5026A22F001020262036A04
:1058E00042688469124E24F073050C682C4323F03F
:1058F00002058B682B430D4DA84201D0B04205D163
:1059000023F00807CB683B4323F00403A84201D0EF
:10591000B04205D14D6922F4407215438A692A4389
:1059200042608461496841630362F0BD0000014048
:1059300000040140F0B5026A22F010020262026A1D
:10594000436884690D6824F4E64444EA05248D68BC
:1059500022F0200242EA05120F4D104EA84201D05B
:10596000B04206D1CF6822F0800242EA071222F04C
:105970004002A84201D0B04207D14D6923F44063F0
:1059800043EA85038D6943EA85034360846149687E
:1059900081630262F0BD000000000140000401408C
:1059A000F0B5026A22F480720262026A4368C46936
:1059B00022F4007224F073050C68124E2C438D689B
:1059C00042EA05220E4DA84201D0B04206D1CF686E
:1059D00022F4006242EA072222F48062A84201D047
:1059E000B04207D14D6923F4405343EA05138D6952
:1059F00043EA05134360C4614968C1630262F0BDB4
:105A0000000001400004014030B5026A22F48052D7
:105A10000262046A4268C3690D6823F4E64343EAFC
:105A200005238D6824F4005444EA0534084DA84247
:105A300002D0084DA84204D14D6922F4804242EAC6
:105A400085124260C36149680164046230BD000090
:105A5000000001400004014070B5046A24F0010414
:105A600004628469056A154EB04214D0B0F1804FCB
:105A700011D0134EB0420ED0124EB0420BD0124E87
:105A8000B04208D0114EB04205D0114EB04202D003
:105A9000104EB04203D124F00304144301E044F05B
:105AA00001041A0724F0F00444EA126225F00A0304
:105AB00001F00A0119438261016270BD00000140DA
:105AC0000004004000080040000C004000040140B9
:105AD000004001400018004030B5046A24F0100472
