:020000040800F2
:10000000600B002029020008872C0008A5240008A6
:10001000852C000849050008DD32000800000000BA
:100020000000000000000000000000008B2C000811
:100030005905000800000000892C00088D2C0008DC
:10004000430200084302000843020008430200087C
:10005000430200084302000843020008430200086C
:10006000430200084302000843020008430200085C
:10007000430200084302000843020008430200084C
:10008000430200084302000843020008430200083C
:100090004D0500084302000843020008430200081F
:1000A000430200084302000843020008430200081C
:1000B000352D0008412D00084D2D00084302000891
:1000C00043020008430200084302000843020008FC
:1000D00043020008B9320008C5320008D1320008D6
:1000E00043020008430200084302000843020008DC
:1000F0004302000843020008712D00084302000873
:100100004302000843020008592D0008430200087A
:10011000430200088130000843020008652D0008F2
:10012000430200084302000843020008430200089B
:10013000430200084302000843020008430200088B
:10014000430200084302000843020008430200087B
:10015000430200084302000843020008430200086B
:10016000430200084302000843020008430200085B
:100170004302000843020008430200080000000098
:10018000430200084302000800F002F800F03CF8C7
:100190000AA090E8000C82448344AAF10107DA45E2
:1001A00001D100F031F8AFF2090EBAE80F0013F0F8
:1001B000010F18BFFB1A43F001031847BC310000C0
:1001C000DC310000103A24BF78C878C1FAD8520751
:1001D00024BF30C830C144BF04680C6070470000C1
:1001E0000023002400250026103A28BF78C1FBD840
:1001F000520728BF30C148BF0B6070471FB503F0DE
:10020000A9F81FBD10B510BD00F0CFF81146FFF7DB
:10021000F5FF03F074F800F0EDF803B4FFF7F2FF18
:1002200003BC00F0F5F80000094880470948004782
:10023000FEE7FEE7FEE7FEE7FEE7FEE7FEE7FEE796
:10024000FEE7FEE704480549054A064B70470000F3
:10025000252D00088901000860050020600B0020A2
:10026000600700206007002053EA020C00F069805C
:100270002DE9F04B4FF00006002B1FBFB3FA83F5BA
:1002800003FA05F424FA05F65E4012BF1643B2FAEB
:1002900082F502FA05F4C5F120051EBF22FA05FC1D
:1002A00044EA0C04203556EA044C4FEA144418BFC3
:1002B000641C4FF000084FF00009904271EB030CF2
:1002C00039D3002919BFB1FA81F701FA07F6B0FA5C
:1002D00080F700FA07F6C7F120071EBF20FA07FCD7
:1002E00046EA0C062037B6FBF4FCA7EB0507103FE7
:1002F00007F01F0BCBF120060CFA0BFB2CFA06F6CD
:1003000044BFB3460026202FA4BF5E464FF0000B2B
:100310005BEA060C08BF4FF0010B19EB0B09ABFBB6
:10032000027C48EB0608C01B06FB02CC0BFB03CC8F
:1003300071EB0C01C1E70B46024641464846BDE859
:10034000F08B13B54FF000004FF00001AFF30080C9
:10035000BDE81C4070474FF0000200B513469446BC
:100360009646203922BFA0E80C50A0E80C50B1F10D
:100370002001BFF4F7AF090728BFA0E80C5048BF21
:100380000CC05DF804EB890028BF40F8042B08BFBF
:10039000704748BF20F8022B11F0804F18BF00F8BB
:1003A000012B7047704770477047754600F02CF876
:1003B000AE4605006946534620F00700854618B052
:1003C00020B5FFF73FFFBDE820404FF000064FF09B
:1003D00000074FF000084FF0000B21F00701AC467A
:1003E000ACE8C009ACE8C009ACE8C009ACE8C00999
:1003F0008D46704710B50446AFF300802046BDE837
:100400001040FFF70ABF000000487047FC040020BE
:1004100001491820ABBEFEE726000200704700002D
:10042000464910B54A6822F440324A604A68436837
:100430001A434A6001684A6822F480724A6001687F
:100440004A68036942EA03224A6001684A6822F066
:1004500040724A6001684A6883681A434A600168CA
:100460008A6822F400628A6001688A68C3681A4355
:100470008A60816A6FF07062D14201688A6822F0F6
:1004800070628A6001688A680CD0836A1A438A6045
:1004900001688A6822F040528A6001688A68C36AEB
:1004A0001A4301E022F040528A6001688A6822F013
:1004B00002028A6001688A68037E42EA43028A6017
:1004C00090F82010002901684A680FD042F40062B9
:1004D0004A6001684A6822F460424A6001684A68DA
:1004E000174C436A04EB43331A4301E022F40062E1
:1004F0004A600168CA6A22F47002CA620168CA6A64
:10050000838B104C04EB03531A43CA6201688A6858
:1005100022F400728A6001688A6890F8303042EAFA
:1005200043228A6001688A6822F480628A600168D6
:100530008A68406942EA8020886010BD002301403B
:1005400000E0FFFF0000F0FFFEE70000014800F0C0
:1005500008B9000058000020704772B6FEE700009E
:1005600078B50024009490F83C20012A19D001228B
:1005700080F83C200A6807230568092A13D9EE6829
:100580000A3A02EB420293409E43EE600B788A687F
:100590000A3B03EB43039A400368DD682A43DA60B1
:1005A00010E0022078BD2E6902EB420293409E4388
:1005B0002E610B788A6803EB43039A4003681D6938
:1005C0002A431A614A681F23072A13D205686E6BF3
:1005D000521E02EB820293409E436E630B790A889F
:1005E0005B1E92B203EB83039A4003685D6B2A4360
:1005F0005A6327E005680D2A12D22E6BD21F02EB38
:10060000820293409E432E630B790A88DB1F92B2CD
:1006100003EB83039A4003681D6B2A431A6311E0BE
:10062000EE6A0D3A02EB820293409E43EE620B7932
:100630000A880D3B92B203EB83039A400368DD6A9C
:100640002A43DA62164B0568144A9D4206D10D68AA
:10065000122D03D1556845F48005556005689D420B
:1006600018D10B68102B01D0112B13D1536843F410
:1006700000035360096810290CD10A490A4A096825
:10068000B1FBF2F101EB8101490000E0491E00914C
:100690000029FBD180F83C40002078BD00230140B8
:1006A000002001400C00002040420F0070B5040003
:1006B0004FF0000503D0206C002610B107E00120A8
:1006C00070BD204600F01CF8666484F83C60206C25
:1006D000C00610D4206C20F4885040F00200206442
:1006E0002046FFF79DFE6664206C20F0020040F07B
:1006F0000100206400E0012584F83C60284670BDBC
:1007000010B586B0044614216846FFF724FE11494F
:10071000206888421BD110480021026842F4807290
:100720000260006800F4807005900B48143802687D
:1007300042F002020260006800F00200059003200F
:100740000090CDE901016946044800F049FA06B07D
:1007500010BD000000200140443802400004024067
:1007600070472DE9F05F0546006800244669D0F81F
:1007700004908768D0F80CB0D0F810A0D0F818809A
:10078000F10748D0F90714D001218160B80703D5DB
:10079000284600F0C3F90CE0780702D54FF4006456
:1007A00007E0380702D54FF4805402E0284600F0F5
:1007B000B4F9F80516D529684FF480708860B8053B
:1007C00003D5284600F0ACF90CE0780502D544F4D6
:1007D000005407E0380502D544F4804402E028467E
:1007E00000F09DF9F80316D529684FF48030886031
:1007F000B80303D5284600F095F90CE0780302D53C
:1008000044F4004407E0380302D544F4803402E0A5
:10081000284600F086F9300707D55FEACB6004D59B
:100820002968102044F40074C86070074FF008076E
:1008300007D55FEA0B7004D52868C760284600F02A
:1008400067F9B00706D52868C068800702D0284637
:1008500000F05FF9700607D55FEACA6004D5296821
:10086000102044F480640861B00607D55FEA0A707E
:1008700004D528680761284600F04CF9F00606D533
:1008800028680069800702D0284600F044F9B003C8
:1008900008D55FEAC96005D5296810204860284658
:1008A00000F03AF9F00307D55FEA097004D528682B
:1008B0004760284600F037F9300446D55FEA4970B2
:1008C00040D5F00504D55FEAC87001D044F00104BA
:1008D000B00504D55FEA887001D544F002047005C4
:1008E00004D55FEA487001D544F00404300529D5E9
:1008F00018F0700F26D008F07000402815D006DCE4
:10090000102809D020280AD0302816D10AE0502813
:100910000ED0602811D10EE044F008040DE044F040
:1009200010040AE044F0200407E044F0400404E02E
:1009300044F0800401E044F480742868816921F067
:1009400070018161296804204860002C05D0686A24
:10095000204368622846FFF703FFBDE8F09F70B5AB
:10096000040003D094F8200010B104E0012070BD11
:10097000204600F081F82068016841F00101016023
:1009800000F02CFA0546052604E000F027FA401B8B
:100990000A2811D820684068C007F6D0206801688E
:1009A00021F00201016000F019FA05460BE000F0A9
:1009B00015FA401B0A2806D9606A40F400306062CC
:1009C00084F82060D2E7206840688007EFD4207E5A
:1009D0000128206801683DD021F080010160607E1F
:1009E00001282068016838D021F040010160A07E14
:1009F00001282068016833D021F020010160E07EE9
:100A00000128206801682ED041F010010160207F8C
:100A100001282068016829D021F008010160607F69
:100A200001282068016824D021F004010160D4E984
:100A300002010843D4E90412114308436168491EC6
:100A400008432168C86100206062012084F820000A
:100A5000002070BD41F08001C0E741F04001C5E7D2
:100A600041F02001CAE721F01001CFE741F0080171
:100A7000D4E741F00401D9E7F0B587B0044614216A
:100A80006846FFF768FC1E492068884236D11D4839
:100A90000025016841F000710160006800F00070FD
:100AA000059018481038016841F0010101600168A3
:100AB00001F001010591016841F008010160006841
:100AC000022400F0080005904FF400600326092777
:100AD0008DE8F10069460C4800F082F801AA009404
:100AE00082E8F0006946094800F07AF80322012103
:100AF000142000F0DDFA142000F0CCFA07B0F0BDAD
:100B0000006400404038024000000240000C0240F7
:100B1000704770477047704770477047704770471D
:100B200070477047704770472DE9F0410446876D64
:100B300000F054F9064694F835000025022806D046
:100B40008020606584F834500120BDE8F081206881
:100B5000016821F0160101602068416921F08001DF
:100B60004161206C08B9A06C20B12068016821F0B7
:100B7000080101602068016821F0010101600CE0BA
:100B800000F02CF9801B052807D920206065032080
:100B900084F8350084F83450D7E720680068C0072F
:100BA000EED194F85C103F208840B860012084F8B2
:100BB000350084F834500020C7E790F8351002293A
:100BC00003D08021416501207047052180F8351050
:100BD0000068016821F001010160002070470000F9
:100BE0002DE9F84FDFF8BCA1002201250AF1040B22
:100BF00003264FF00F090BF1040E00BF0B6805FA36
:100C000002F42340A34270D10F7907F00307012FAC
:100C100001D0022F16D187684FEA420806FA08FC75
:100C200027EA0C07D1F80CC00CFA08FC4CEA070CB8
:100C3000C0F808C04768A7430C79C4F30014944077
:100C40003C4344600C79E443A4070AD0C4684FEAEB
:100C5000420C06FA0CF7BC438F6807FA0CF72743DF
:100C6000C7600C7904F00304022C12D1D40800EB05
:100C7000840CDCF820405707FF0E09FA07F824EA35
:100C80000804D1F8108008FA07F848EA0408CCF8FC
:100C9000208004684FEA420C06FA0CF7BC430F7937
:100CA00007F0030707FA0CF7274307604C6814F4B2
:100CB000403F70D03C4C276847F480472760246849
:100CC00022F0030704F480440094384C07EB040C32
:100CD000DCF8084897074FEA177809FA08F7BC4389
:100CE000334FB84202D1002724E054E0314FB842DC
:100CF00001D101271EE0304FB84201D1022719E08F
:100D00002E4FB84201D1032714E02D4FB84201D134
:100D100004270FE02B4FB84201D105270AE02A4FE4
:100D2000B84201D1062705E0284FB84201D1072774
:100D300000E0082707FA08F72743CCF80878DAF824
:100D400000405746D1F804C09C435FEACC3C00D534
:100D50001C433C60DBF800405F46D1F804C09C4374
:100D60005FEA8C3C00D51C433C60DEF800407746CF
:100D7000D1F804C09C435FEACC2C00D51C433C60F6
:100D8000084F0C373C68D1F804C09C435FEA8C2CB8
:100D900000D51C433C60521C102AFFF42FAFBDE865
:100DA000F88F0000003C0140443802400030014010
:100DB000000002400004024000080240000C024013
:100DC000001002400014024000180240001C0240C3
:100DD0000AB1816170470904FBE70000014880689F
:100DE000704700000000002070B5040025D094F882
:100DF0003D00002520B984F83C50204600F0B8F8AA
:100E0000242084F83D002068016821F00101016080
:100E10002068016841F4004101602068016821F404
:100E20000041016000F010FA4D4A6168914201D81A
:100E30004C4900E04C49884201D2012070BD4B4929
:100E40002368B0FBF1F15E6826F03F060E435E605A
:100E50006368934206D94FF4967359434FF47A73FB
:100E6000B1FBF3F12368491C1E6A26F03F063143AB
:100E700019626168914210D84900401EB0FBF1F23E
:100E8000521CC2F30B02042A01D2042022E0B0FB60
:100E9000F1F0401CC0F30B001CE0A268F2B301EBC0
:100EA000C10303EB0116431EB3FBF6F35B1C43F4D3
:100EB00080431B0549D092B301EBC10202EB011143
:100EC000401EB0FBF1F0401CC0F30B0040F480402A
:100ED00040F400402168CA694CF6FF739A431043FE
:100EE000C861D4E9071001432068026822F0C002FB
:100EF00011430160D4E9030101432068826848F28C
:100F0000FF339A4311438160D4E905010843216806
:100F1000CA6822F0FF021043C86001E00EE016E04C
:100F20002068016841F0010101602564202084F8F7
:100F30003D00256384F83E50002070BD01EB410662
:100F4000431EB3FBF6F35B1CB3E70120C2E701EBE2
:100F50004101401EB0FBF1F0401CC0F30B00B7E7AD
:100F6000A086010080841E0000093D0040420F0061
:100F700010B586B0044614216846FFF7ECF9144911
:100F80002068884221D113480021026842F0020201
:100F90000260006800F0020005904FF4406000908D
:100FA0001220CDE90101032003900420049069463A
:100FB0000948FFF715FE07481030016841F4800129
:100FC0000160006800F48000059006B010BD0000CC
:100FD0000058004030380240000402400248816856
:100FE0000278114481607047000000200B4810B562
:100FF000016841F400710160016841F480610160A1
:10100000016841F480710160032000F071F8002054
:1010100000F006F800F024F8002010BD003C02406B
:1010200070B50D4D04464FF47A712878B1FBF0F09D
:101030000A490968B1FBF0F000F00CFB48B9102C2C
:1010400007D200222146501E00F032F800206C60CA
:1010500070BD012070BD0000000000200C000020C9
:101060000B4882B0016841F480410160006800F4DF
:10107000804000900648001F016841F080510160E7
:10108000006800F080500090052002B000F030B8F9
:1010900044380240002809DB00F01F020121914082
:1010A0004009800000F1E020C0F800117047000006
:1010B000F0B40E4B1B680C46C3F30223C3F10705C3
:1010C000042D00D90425191D072901D2002300E0B1
:1010D000DB1E012606FA05F1491E214099409E407B
:1010E000761E16403143F0BC02F0F9B80CED00E07A
:1010F000064900F0070208684FF6FF03184040EA6F
:101100000220034A10430860704700000CED00E025
:101110000000FA052DE9F0470E46050065D0DFF81E
:101120001481D8F80000F7B200F00700B04207D2EF
:1011300088F80070D8F8000000F00700B04254D1E1
:1011400028683D4C810712D5400703D5206840F43C
:10115000E05020602878000703D5206840F4604004
:1011600020602068A96820F0F000084320602878FB
:10117000C0072DD0304968680839012812D00228EC
:1011800013D0032811D00968890700292DDA2168B6
:1011900021F0030101432160FFF720FE814641F267
:1011A000883A0EE009688903EFE709688901ECE7EE
:1011B000FFF714FEA0EB0901514502D90320BDE859
:1011C000F0872068696800F00C00B0EB810FEFD168
:1011D000D8F80010404601F00701B14207D9077066
:1011E000006800F00700B04201D00120E7E728784E
:1011F000400705D52068E96820F4E05008432060E6
:101200002878000706D52068296920F4604040EA64
:10121000C100206000F038F82168084AC1F30311CA
:10122000515CC8400649086006480068FFF7F8FEB0
:101230000020C4E7003C0240083802405E3300084A
:101240000C000020040000200448054900680968DB
:10125000044AC1F38221515CC84070470C00002051
:10126000083802406E3300080448054900680968E0
:10127000044AC1F34231515CC84070470C00002061
:10128000083802406E330008154810B5006810F0A9
:101290000C02144813D04110042A0FD0082A0ED192
:1012A0000F4C241F2268236802F03F025B0207D51F
:1012B0002068C0F38810A0FB010106E0084610BDBD
:1012C0002168C1F38811A1FB00010023FEF7CCFFC8
:1012D0002168C1F30141491C4900B0FBF1F010BD88
:1012E000083802400024F4002DE9F84F04006ED0C5
:1012F0002078DFF84C93C007A9F104054AD009F122
:1013000004000168C1F38101012908D00068C0F31D
:10131000810002280AD1D9F80000400206D52868C9
:10132000800337D560680028E1D033E06068B0F50D
:10133000803F10D0B0F5A02F286810D020F4803066
:101340002860286820F4802028606068A8B1FFF732
:1013500045FD06460DE0286840F48030F4E740F48F
:1013600080202860F7E700BFFFF738FD801B642866
:1013700073D828688003F7D50CE0FFF72FFD0646E9
:1013800005E000BFFFF72AFD801B6428F0D828681D
:101390008003F7D42078DFF8AC8280074FF0000A92
:1013A0003ED5A748001D016811F00C0F08D0006859
:1013B000C0F3810002280BD1D9F80000400207D405
:1013C0002868800716D5E068012800D112E033E1D3
:1013D000E068B8B10120C8F80000FFF7FFFC06463E
:1013E00005E000BFFFF7FAFC801B0228C0D8286880
:1013F0008007F7D52868216920F0F80040EAC1008D
:1014000028600DE0C8F800A0FFF7E8FC064604E0FD
:10141000FFF7E4FC801B02281FD828688007F7D458
:101420002078000722D5864F87486169703771B1EF
:1014300001210160FFF7D2FC064604E0FFF7CEFC75
:10144000801B022809D838688007F7D50EE0C0F85D
:1014500000A0FFF7C3FC064605E082E0FFF7BEFCF4
:10146000801B02287DD838688007F7D42078400791
:1014700068D5DFF8CCB100270BF13C0BDBF800009E
:10148000C0000BD4DBF8001041F08051CBF8001005
:10149000DBF80000012700F0805000906B4E3068B0
:1014A000C00510D4306840F480703060FFF796FCBF
:1014B000009005E0FFF792FC0099401A022850D8EE
:1014C0003068C005F6D55E4EA0686C3601280FD096
:1014D0000528306810D020F001003060306820F01E
:1014E00004003060A068B8B1FFF778FC00900FE00E
:1014F000306840F00100F4E740F004003060F7E7A6
:10150000FFF76CFC0099411A41F28830814266D89D
:1015100030688007F4D50EE0FFF760FC009007E02C
:10152000FFF75CFC0099411A41F28830814256D89D
:1015300030688007F4D42FB1DBF8001021F080511F
:10154000CBF80010A069C8B33D49091D0968C1F373
:10155000810102294AD00228504607D0C8F860000D
:1015600000E03CE0FFF73AFC04463BE04746C8F8A1
:101570006000FFF733FC064605E000BFFFF72EFCD6
:10158000801B02282BD828688001F7D4D4E90701F2
:101590000843A16A2E4A490802EB0141626A41EA06
:1015A0008211084394F82C1040EA0161C9F8001038
:1015B00001203866FFF712FC044606E03EE000BF5B
:1015C000FFF70CFC001B022809D828688001F7D51A
:1015D00034E000BFFFF702FC001B022802D9032001
:1015E000BDE8F88F28688001F4D427E00128F7D0FF
:1015F000D9F80000E26900F4800191421CD1226A0E
:1016000000F03F01914217D147F6C071626A014074
:10161000B1EB821F10D1A26A4FF0FF3300F44031CA
:1016200003EB5202B1EB024F06D194F82C1000F0FC
:101630007060B0EB016F01D00120D1E70020CFE74F
:101640000438024000004742800E474200700040CC
:101650000000FFFF10B5401EB0F1807F01D30120D4
:1016600010BD4FF0E02460610F21601701F037FEDC
:101670000020A06107202061002010BD7047704746
:1016800010B590F83C20012A22D0012280F83C209D
:10169000CA688C6822F4407222434C6822F480624B
:1016A00022430C6822F4006222430C6922F4805227
:1016B00022434C6922F400522243C969002322F4D8
:1016C00080420A4301684A6480F83C30002010BD23
:1016D000022010BD70B590F83C20012A32D00124C0
:1016E00080F83C40022280F83D2003685A689D68DB
:1016F00022F070060A6832435A60134B02689A421D
:1017000014D0B2F1804F11D0104B9A420ED0104B32
:101710009A420BD00F4B9A4208D00F4B9A4205D0F9
:101720000E4B9A4202D00E4B9A4204D1496825F0E2
:1017300080031943916080F83D40002180F83C10FF
:10174000084670BD022070BD00000140000400404A
:1017500000080040000C004000040140004001402F
:101760000018004010B5040003D094F83D0010B1FB
:1017700007E0012010BD002084F83C00204600F066
:101780001FF8022084F83D00211D206801F0F6FAC0
:10179000012084F8460084F83E0084F83F0084F875
:1017A000400084F8410084F8420084F8430084F843
:1017B000440084F8450084F83D00002010BD00007E
:1017C00008B501681748814212D11748016841F0F5
:1017D000200101600068002200F02000009002213A
:1017E0003720FFF765FCBDE808403720FFF752BC03
:1017F0000D480E4A001D914207D1016841F40031A5
:101800000160006800F4003009E0094A914207D104
:10181000016841F480210160006800F4802000909C
:1018200008BD000000140040403802400044014060
:10183000004801402DE9F0410D46040003D094F822
:101840003D0018B108E00120BDE8F081002084F8D7
:101850003C00204600F040F8022084F83D0020685B
:10186000816844F2070291438160211D206801F0E4
:1018700085FA226890689169166A2B68AF690343FC
:1018800040F20330814341EA0721A868EF69084329
:101890004FF6FC418843E96840EA07200143286984
:1018A0002F6A000140EA0730084369686D6926F035
:1018B000AA0646EA0515294393602268906154F808
:1018C000460B0162012004F81F09E0752076E076DE
:1018D0002077A0750020B7E7F0B587B00446142143
:1018E0006846FEF738FD57492368002455481039EB
:1018F0000225554A554EB3F1804F27D0DFF850C12D
:10190000C027634556D1036843F0020303600068B3
:1019100000F002000590086840F0010008600868C7
:101920000097CDE9015400F00100CDE9045069466B
:1019300003941046FFF754F9002202211D20FFF7FF
:10194000B7FB1D20FFF7A6FB07B0F0BD036843F00F
:1019500001030360006800F001000590086840F092
:1019600001000860086800F001000590086840F078
:10197000020008600868012700F00200059020209E
:101980000090CDE90154CDE9034769461046FFF7C1
:1019900027F908200090CDE90154CDE903476946B5
:1019A0003046FFF71DF9002202211C20FFF780FBC3
:1019B0001C20C7E7DFF89CC063451FD1026842F0D6
:1019C00004020260006800F004000590086840F01E
:1019D0000200086008680097CDE9015400F0020099
:1019E000CDE90450694603943046FFF7F9F8002228
:1019F00002211E20FFF75CFB1E20A3E7164EB34218
:101A0000A2D1036843F008030360006800F00800F7
:101A10000590086840F0010008600868694600F019
:101A20000100059003200090CDE901541046CDE956
:101A30000345FFF7D5F8002202213220FFF738FBDB
:101A400032207FE74038024000000240000402409C
:101A50000004004000080040000C004070472DE9E1
:101A6000F041054690F83C0000260C46012810D0B5
:101A7000012085F83C0072B1042A1CD0082A2CD021
:101A80000C2A50D00126002085F83C003046BDE8E5
:101A9000F0810220FBE7D4E90012E368286801F036
:101AA00093FA2868816921F00C01816128688169B5
:101AB000A26811430FE0D4E90012E368286801F03E
:101AC000C3FA2868816921F44061816128688169CD
:101AD000A26841EA02218161D5E72868D4E9002C97
:101AE000277B016A21F480710162C169036A21F0D8
:101AF000030141EA0C0121F0F00C39074FF4206793
:101B00004CEA116123F4206307EA02221A43C161FF
:101B100002622868C16921F00C01C1612868C169AD
:101B2000A268114328E02868D4E90027E168036A25
:101B300023F480530362D0F81CC0036A2CF4407C69
:101B40004CEA07274FF6FF7C27F470470CEA013177
:101B500039434FF4204723F4204307EA02321A4363
:101B6000C16102622868C16921F44061C1612868CD
:101B7000C169A26841EA0221C16184E710B504008D
:101B800003D094F83D0010B107E0012010BD002003
:101B900084F83C00204600F01FF8022084F83D0045
:101BA000211D206801F0EAF8012084F8460084F83D
:101BB0003E0084F83F0084F8400084F8410084F837
:101BC000420084F8430084F8440084F8450084F817
:101BD0003D00002010BD000010B586B00446142161
:101BE0006846FEF7B8FB17492068884228D1164896
:101BF0000021026842F002020260006800F0020068
:101C0000059011481438026842F00402026000682E
:101C100000F0040005904FF4707000900220CDE9B0
:101C200001010320CDE9031069460848FEF7D8FFFB
:101C3000022211462E20FFF73BFA2E20FFF72AFA48
:101C400006B010BD000401404438024000080240C4
:101C500070B50446006801694FF00005C943890763
:101C600015D4C168C943890711D4E91E0161012057
:101C70002077206880698007204602D0FFF7EEFEBB
:101C800004E000F00FF9204600F0D0F92577206835
:101C90000169C943490717D4C168C943490713D427
:101CA0006FF004010161022020772068806910F440
:101CB000407F204602D0FFF7D1FE04E000F0F2F8AA
:101CC000204600F0B3F9257720680169C943090768
:101CD00016D4C168C943090712D46FF00801016125
:101CE000042020772068C0698007204602D0FFF7D3
:101CF000B5FE04E000F0D6F8204600F097F925770D
:101D000020680169C943C90617D4C168C943C90617
:101D100013D46FF010010161082020772068C0699A
:101D200010F4407F204602D0FFF798FE04E000F058
:101D3000B9F8204600F07AF9257720680169C9438F
:101D4000C90708D1C168C943C90704D1891E016107
:101D5000204600F06CF920680169C943090609D4DE
:101D6000C168C943090605D46FF0800101612046AE
:101D7000FFF784FC20680169C943490609D4C1689A
:101D8000C943490605D46FF040010161204600F0C7
:101D90004FF920680169C94389060BD4C168C9435A
:101DA000890607D46FF0200101612046BDE870402C
:101DB000FFF765BC70BD000070B586B00446142105
:101DC0006846FEF7C8FA24682E4D00222E490223E9
:101DD0002E48AC420ED10C6844F010040C60096827
:101DE00001F0100105914FF4D4410091CDE9013289
:101DF000012142E0264E0325B4420DD10C6844F087
:101E000010040C60096801F01001059160211DE0CB
:101E1000FEF7E6FE06B070BD1E4E1F48B44209D163
:101E20000C6844F002040C60096801F0020105919D
:101E300081150BE0194EB4420FD10C6844F0020436
:101E40000C60096801F00201059171150091CDE95E
:101E50000132CDE903256946DAE7114DAC42D9D10B
:101E60000C6844F002040C60096801F0020105915D
:101E7000E9000091CDE901320921CDE9032169464C
:101E8000C6E7000000000140303802400010024068
:101E9000004001400044014000040240004801406D
:101EA00000180040704770B5044690F83C000026CA
:101EB0000D4601280FD0012084F83C006AB1042AA5
:101EC0001DD0082A2FD00C2A3FD00126002084F8EC
:101ED0003C00304670BD022070BD206800F0B2FFAB
:101EE0002068816941F0080181612068816921F0E1
:101EF00004018161206881692A69114311E0206829
:101F000000F0D0FF2068816941F4006181612068A0
:101F1000816921F480618161206881692A6941EACF
:101F200002218161D2E7206800F0F2FF2068C169D8
:101F300041F00801C1612068C16921F00401C1615B
:101F40002068C1692A69114311E0206801F014F882
:101F50002068C16941F40061C1612068C16921F450
:101F60008061C1612068C1692A6941EA0221C161B9
:101F7000ACE710B5040003D094F83D0010B107E0C1
:101F8000012010BD002084F83C00204600F01EF81F
:101F9000022084F83D00211D206800F0EFFE0120A2
:101FA00084F8460084F83E0084F83F0084F840003E
:101FB00084F8410084F8420084F8430084F8440027
:101FC00084F8450084F83D00002010BD08B5134A90
:101FD00001681348914207D1016841F00101016095
:101FE000006800F0010009E00E4A914208D1016842
:101FF00041F480310160006800F48030009008BD39
:1020000009488142FBD10648001F016841F04001A8
:102010000160006800F04000F0E7000000000140AF
:1020200044380240004001400018004070477047AB
:102030007047704770470000F8B5016804460868AB
:10204000CA684B6910F00F0F4FF0000559D003F02C
:10205000010602F49077374365D0C10705D0D1055A
:1020600003D5216C41F001012164410705D5D90751
:1020700003D0216C41F002012164810705D5D90705
:1020800003D0216C41F004012164010707D502F05F
:102090002001314303D0216C41F008012164216CFF
:1020A00000293AD0800604D5900602D5204601F0DA
:1020B0001CF820684069216CC0F38010090700D427
:1020C00060B3204600F0EAFF20684069400621D551
:1020D0002068143050E8001F21F0400140E8001251
:1020E000002AF5D1A06BA8B16C490165A06BFEF781
:1020F00064FD002811D0A06B016D01B0BDE8F04077
:10210000084783060FD593060DD52046BDE8F84055
:1021100000F0EBBF2046FFF78DFFF8BD2046FFF72C
:1021200089FF2564F8BD266B2023012E79D1C606D0
:1021300077D5D60675D50868486800904869400686
:1021400040D5A16B086840680004000CEAD0A28D5D
:102150008242E7D9E085C869B0F5807F2DD020683C
:102160000C3050E8001F21F4807140E80012002A72
:10217000F5D12068143050E8001F21F0010140E83B
:102180000012002AF5D12068143050E8001F21F019
:10219000400140E80012002AF5D184F83E30256362
:1021A00020680C3050E8001F21F0100140E80012B8
:1021B000002AF5D1A06BFEF7B7FCA08DE18D401A87
:1021C00081B229E0A08DE18D401A81B2E08D002816
:1021D000A8D00029A6D020680C3050E8002F22F4A7
:1021E000907240E80026002EF5D12068143050E8A7
:1021F000002F22F0010240E80026002EF5D184F8DD
:102200003E30256320680C3050E8002F22F0100289
:1022100040E80023002BF5D12046FFF70AFFF8BD68
:10222000FFE705062BD5150629D594F83D00212892
:10223000F5D1A068B0F5805F01D12069B0B1206A06
:10224000411C2162216800784860E08C401E000437
:10225000000CE084E3D12068C16821F08001C160F6
:102260002068C16841F04001C160D8E7206A008859
:10227000C0F308004860206A801C2062E5E7400641
:10228000CDD55006CBD5CA68204622F04002CA60A0
:1022900084F83D3000F005F9C1E700008D300008FA
:1022A00070B5040004D094F83D00002510B106E09C
:1022B000012070BD84F83C50204600F023F8242013
:1022C00084F83D002068C16821F40051C1602046B7
:1022D00000F06CFF2068016921F4904101612068E1
:1022E000416921F02A0141612068C16841F400512F
:1022F000C1602564202084F83D0084F83E00002061
:1023000070BD00002DE9F04186B0044614216846F6
:10231000FEF721F85B495A4823680024594A1039CE
:1023200002250326DFF86081834233D1106840F430
:1023300080101060106800F480100590086840F06C
:1023400004000860086800F004000590086840F088
:1023500008000860086802AB00F0080005908814C7
:10236000CDE90005082783E8D00069464748FEF715
:1023700037FC0420CDE9000502AB694683E8D000B4
:102380004046FEF72DFC002202213520FEF790FE8C
:10239000352027E0DFF8F8C007273E48634526D1FF
:1023A000384A121D136843F010031360126802F0DC
:1023B000100205920A6842F001020A60096802AA46
:1023C00001F0010105914FF4C061CDE9001582E8EB
:1023D000D0006946FEF704FC002201212520FEF70B
:1023E00067FE2520FEF756FE06B0BDE8F081DFF857
:1023F000A8C063451FD1136843F40033136012680B
:1024000002F4003205920A6842F001020A6009688B
:1024100002AB01F0010105910C21CDE9001583E823
:10242000D0006946FEF7DCFB002201212620FEF7E2
:102430003FFE2620D6E719488342D5D1106840F4E4
:1024400080201060106800F480200590086840F03B
:1024500008000860086802AB00F0080005904FF41F
:102460004070CDE9000583E8D00069464046FEF79C
:10247000B7FB002202212720FEF71AFE2720B1E732
:102480000050004040380240000C0240000802406A
:10249000001001400000024000440040004800409D
:1024A00070477047FEE700007FB500241548009490
:1024B000019402941249039401604FF40031C0E981
:1024C00001140461047680F820400F49C0E90A1421
:1024D0000125C561C46080F830404561FEF7E6F82B
:1024E00008B1FEF73AF80820CDE9000569460294E4
:1024F0000448FEF735F8002801D0FEF72EF87FBD1E
:1025000000200140100000200100000F104810B50D
:102510000E4901600321416000214FF4C022816017
:10252000C0E903124FF4A002426101764176012214
:102530008276C17601774177FEF711FA002803D041
:10254000BDE81040FEF709B810BD0000006400406F
:10255000580000202DE9F04786B014216846FDF7A9
:10256000FAFE3D480024016841F010010160016855
:1025700001F010010591016841F0800101600168DE
:1025800001F080010591016841F0010101600168DD
:1025900001F001010591016841F00201016001684B
:1025A00001F002010591016841F008010160016834
:1025B00001F008010591016841F004010160006823
:1025C000DFF8988000F004004FF4A8550590002231
:1025D00029464046FEF7FCFBDFF884A04FF4F046A6
:1025E000002231465046FEF7F3FBDFF878904FF4B7
:1025F0008857002239464846FEF7EAFB0095012538
:10260000CDE90154694640460394FEF7E9FA48F2E1
:102610000100CDE90004694640460294FEF7E0FA65
:102620000096CDE90154694650460394FEF7D8FA66
:102630000097CDE90154694648460394FEF7D0FA65
:102640000820CDE90004694650460294FEF7C8FA16
:1026500006B0BDE8F08700003038024000100240AC
:10266000000C0240000002400D4810B50B4901600B
:102670000C49416000214FF480428160C0E903129F
:1026800041618161C1610162FEF7AEFB002803D0A8
:10269000BDE81040FDF761BF10BD000000580040CC
:1026A00080000020A086010010B588B01C2168467B
:1026B000FDF751FE144813490024C0E9001444F208
:1026C0009F11C0E9024104618461FFF74BF808B132
:1026D000FDF743FF0C48FFF74CFC08B1FDF73DFF49
:1026E0006020CDE900040294002269460648049463
:1026F000FFF7D9FB08B1FDF730FF0348FFF75CFB9C
:1027000008B010BD004401401403002010B588B08B
:102710001C216846FDF71FFE144813490024C0E938
:10272000001444F29F11C0E9024104618461FFF783
:1027300019F808B1FDF711FF0C48FFF71AFC08B1B2
:10274000FDF70BFF6020CDE90004029400226946EA
:1027500006480494FFF7A7FB08B1FDF7FEFE034807
:10276000FFF72AFB08B010BD004801405C030020C1
:1027700010B588B01C216846FDF7EDFD16481549D7
:10278000002401605321C0E9011442F21071C0E934
:1027900003148461FFF7EDFB08B1FDF7DEFE602056
:1027A000CDE900040294002269460B480494FFF727
:1027B0007AFB08B1FDF7D1FE042269460648FFF70F
:1027C00072FB08B1FDF7C9FE0348FFF7F5FA08B040
:1027D00010BD000000180040A403002010B592B006
:1027E00000240F941C2168461094FDF7B4FD2021AD
:1027F00007A8FDF7B0FD2C482A49C0E9001444F2AF
:102800009F11C0E90241046144618461FFF7B1FB9B
:1028100008B1FDF7A2FE0F940FA923481094FEF70C
:1028200059FF08B1FDF799FE6020CDE9000402943C
:10283000039404940594002269461B480694FFF70C
:1028400032FB08B1FDF789FE042269461648FFF7FE
:102850002AFB08B1FDF781FE082269461248FFF7FE
:1028600022FB08B1FDF779FE0C2269460E48FFF7FE
:102870001AFB08B1FDF771FE0794089409944FF410
:1028800000500A94CDE90B4007A907480E94FEF7C3
:10289000F7FE08B1FDF761FE0348FFF78DFA12B0AD
:1028A00010BD000000000140D400002010B58CB025
:1028B00024216846FDF74FFD0024154809944FF088
:1028C00080410A94C0E900144FF6FF71C0E902414B
:1028D000046184610320CDE900040120CDE90204F4
:1028E0000494CDE905400794694609480894FEF729
:1028F000A1FF08B1FDF731FE099409A904480A9423
:10290000FEF7E8FE002801D0FDF727FE0CB010BD51
:102910001C01002010B58CB024216846FDF71BFD7A
:1029200000241648099414490A94C0E900144FF68B
:10293000FF71C0E90241046184610320CDE9000414
:102940000120CDE902040494CDE9054007946946CD
:102950000A480894FEF76EFF08B1FDF7FEFD0994E2
:1029600009A906480A94FEF7B5FE002801D0FDF734
:10297000F4FD0CB010BD0000000400406401002014
:1029800010B58CB024216846FDF7E5FC00241648FC
:10299000099414490A94C0E900144FF6FF71C0E984
:1029A0000241046184610320CDE900040120CDE9E6
:1029B00002040494CDE90540079469460A48089446
:1029C000FEF738FF08B1FDF7C8FD099409A90648CC
:1029D0000A94FEF77FFE002801D0FDF7BEFD0CB083
:1029E00010BD000000080040AC01002010B58CB004
:1029F00024216846FDF7AFFC0024164809941449C9
:102A00000A94C0E900144FF6FF71C0E90241046165
:102A100084610320CDE900040120CDE9020404947F
:102A2000CDE90540079469460A480894FEF702FF7D
:102A300008B1FDF792FD099409A906480A94FEF72A
:102A400049FE002801D0FDF788FD0CB010BD000044
:102A5000000C0040F40100201CB500240E48009436
:102A60000C49019401605321C0E9011442F20F7135
:102A70008461C160FEF776FE08B1FDF76EFD00943B
:102A8000694605480194FEF725FE002801D0FDF7B0
:102A900064FD1CBD001400403C02002010B586B04F
:102AA000002425480594049400940194029421493B
:102AB00003940160A721C0E9011442F21071C0E93A
:102AC000031444618461FFF759F808B1FDF745FD2F
:102AD000049404A918480594FEF7FCFD08B1FDF71D
:102AE0003CFD0120CDE900400294002269461248D5
:102AF0000394FEF7B4FF08B1FDF72FFD04226946E9
:102B00000D48FEF7ACFF08B1FDF727FD0822694626
:102B10000948FEF7A4FF08B1FDF71FFD0C22694626
:102B20000548FEF79CFF002801D0FDF716FD06B012
:102B300010BD0000000401408402002010B588B0E0
:102B40001C216846FDF707FC154814490024C0E91C
:102B5000001444F29F11C0E9024104618461FFF74F
:102B600008FA08B1FDF7F9FC6020CDE900040294F1
:102B7000002269460A480494FFF795F908B1FDF769
:102B8000ECFC042269460648FFF78DF908B1FDF711
:102B9000E4FC0348FFF710F908B010BD0040014005
:102BA000CC0200200C4810B50A4901604FF4E13115
:102BB0004160002181600C22C160C0E90412816182
:102BC000C161FFF76DFB002803D0BDE81040FDF7A1
:102BD000C4BC10BD00500040EC0300200C4810B5F0
:102BE0000A4901604FF4E1314160002181600C220B
:102BF000C160C0E904128161C161FFF751FB002887
:102C000003D0BDE81040FDF7A8BC10BD0010014086
:102C1000300400200C4810B50A4901604FF41651E9
:102C20004160002181600C22C160C0E90412816111
:102C3000C161FFF735FB002803D0BDE81040FDF768
:102C40008CBC10BD00440040740400200C4810B53A
:102C50000A4901604FF4E1314160002181600C229A
:102C6000C160C0E904128161C161FFF719FB00284E
:102C700003D0BDE81040FDF770BC10BD0048004017
:102C8000B8040020FEE7FEE770477047FEF7A6B9DC
:102C900030B593B030216846FDF75DFB14210CA8D8
:102CA000FDF759FB1D480025016841F08051016086
:102CB000006800F0805011901948016841F480418B
:102CC00001600068022400F480401190012000900F
:102CD000000401908001CDE9064008AA0420A82143
:102CE00082E813000B906846FEF7FEFA08B172B650
:102CF000FEE70CA90F2081E831004FF4A0500F909F
:102D00004FF48050109005210CA8FEF703FA00281C
:102D100001D072B6FEE713B030BD0000403802406B
:102D2000007000400248016841F470010160704782
:102D300088ED00E00148FEF78BBF00001C01002079
:102D40000148FEF785BF0000640100200148FEF73E
:102D50007FBF0000AC0100200148FEF779BF0000F2
:102D6000F40100200148FEF773BF00003C02002080
:102D70000148FEF76DBF000084020020F0B5026834
:102D8000254C264D264E274F274B4FF0804CA04216
:102D900009D0604507D0A84205D0B04203D0B84260
:102DA00001D0984204D122F0700E4A6842EA0E0225
:102DB000A0421BD0604519D0A84217D0B04215D010
:102DC000B84213D0984211D0184DA8420ED0184DD9
:102DD000A8420BD0174DA84208D0174DA84205D0E5
:102DE000164DA84202D0164DA84203D122F44075D8
:102DF000CA682A434D6922F080022A4302608A6829
:102E0000C2620A688262A04201D0984201D1096977
:102E1000016301214161F0BD000001400004004058
:102E200000080040000C0040000401400040014048
:102E3000004401400048014000180040001C0040D0
:102E400000200040F0B5026A22F001020262036A2B
:102E500042688469124E24F073050C682C4323F0F9
:102E600002058B682B430D4DA84201D0B04205D11D
:102E700023F00807CB683B4323F00403A84201D0AA
:102E8000B04205D14D6922F4407215438A692A4344
:102E900042608461496841630362F0BD0000014003
:102EA00000040140F0B5026A22F010020262026AD8
:102EB000436884690D6824F4E64444EA05248D6877
:102EC00022F0200242EA05120F4D104EA84201D016
:102ED000B04206D1CF6822F0800242EA071222F007
:102EE0004002A84201D0B04207D14D6923F44063AB
:102EF00043EA85038D6943EA850343608461496839
:102F000081630262F0BD0000000001400004014046
:102F1000F0B5026A22F480720262026A4368C469F0
:102F200022F4007224F073050C68124E2C438D6855
:102F300042EA05220E4DA84201D0B04206D1CF6828
:102F400022F4006242EA072222F48062A84201D001
:102F5000B04207D14D6923F4405343EA05138D690C
:102F600043EA05134360C4614968C1630262F0BD6E
:102F7000000001400004014030B5026A22F4805292
:102F80000262046A4268C3690D6823F4E64343EAB7
:102F900005238D6824F4005444EA0534084DA84202
:102FA00002D0084DA84204D14D6922F4804242EA81
:102FB00085124260C36149680164046230BD00004B
:102FC000000001400004014070B5046A24F00104CF
:102FD00004628469056A154EB04214D0B0F1804F86
:102FE00011D0134EB0420ED0124EB0420BD0124E42
:102FF000B04208D0114EB04205D0114EB04202D0BE
:10300000104EB04203D124F00304144301E044F015
:1030100001041A0724F0F00444EA126225F00A03BE
:1030200001F00A0119438261016270BD0000014094
:103030000004004000080040000C00400004014073
:10304000004001400018004030B5046A24F010042C
:1030500004628469056A24F4407444EA022222F47A
:1030600070444FF6FF7202EA03322243A02425F097
:10307000A00304EA011119438261016230BD00001E
:103080000148FEF7D9BF0000EC03002010B5806BAB
:103090000021C185C184FEF7CDFF10BD01680C3150
:1030A00051E8002F22F4907241E80023002BF5D163
:1030B0000168143151E8002F22F0010241E8002399
:1030C000002BF5D1016B012909D101680C3151E8C0
:1030D000002F22F0100241E80023002BF5D120211F
:1030E00080F83E1000210163704708B590F83E104B
:1030F000222901D0022008BD82684FF480539A42F1
:1031000001D1016921B1816A9A421BD04AB10AE01A
:103110000268816A5268C2F308020A80816A891CC7
:1031200008E0026972B10268526802F07F020A7018
:10313000816A491C8162C18D491E0904090CC1853F
:1031400003D019E002685268F1E70168CA6822F00A
:103150002002CA600168CA6822F48072CA600168ED
:103160004A6922F001024A61202180F83E10016B79
:10317000012903D0FFF794F9002008BD0021016365
:1031800001680C3151E8002F22F0100241E80023C1
:10319000002BF5D101680A68D20602D50A68496891
:1031A0000091818DFEF745FFE6E7000070B504460B
:1031B00000680169E26821F440511143016121690D
:1031C000A068E26908436169114308432168CA683D
:1031D00049F20C639A430243CA6020684169A269BC
:1031E00021F440711143416131492068884202D085
:1031F0003049884202D1FEF737F801E0FEF724F8A3
:10320000E2690023192164253226B2F5004F626875
:1032100028D0A0FB0101930F9200FDF725F801468D
:10322000B0FBF5F06FF01802504301EB800006EBA5
:103230000010B0FBF5F000F0F002B1FBF5F002EB8E
:103240000012B1FBF5F06FF01803584301EB80005A
:1032500006EB0010B0FBF5F000F00F002168104401
:10326000886070BDA0FB010192185B41FCF7FCFF78
:103270000146B0FBF5F00201B1FBF5F06FF0180369
:10328000584301EB800006EBC000B0FBF5F000F006
:10329000F80002EB4002B1FBF5F0584301EB80006F
:1032A00006EBC000B0FBF5F000F00700D6E7000029
:1032B00000100140001401400148FEF7BDBE0000AF
:1032C000300400200148FEF7B7BE0000740400205F
:1032D0000148FEF7B1BE0000B8040020FEE7090770
:1032E000090E002804DB00F1E02080F8001470478C
:1032F00000F00F0000F1E02080F8141D7047FDF78A
:1033000075FEFFF7C5FCFFF725F9FFF7CDF8FFF7CE
:10331000FDF8FFF7A9F9FFF761FAFFF7C7FAFFF722
:10332000F9FAFFF72DFBFFF761FBFFF795FBFFF7BE
:10333000B5FBFFF703FCFFF7B7F9FFF7E7F9FFF776
:1033400017FAFFF72FFCFFF749FCFFF763FCFFF7C5
:103350007DFCFEE74FF04070E1EE100A7047000080
:103360000000000000000102030406070809000035
:103370000000010203040000983300080000002050
:1033800010000000C4010008A8330008100000204D
:10339000500B0000E00100080100000010000000D8
:0833A000000000000024F4000D
:040000050800018965
:00000001FF
